:020000040800F2
:1000000000000220191F0008A11E0008A31E0008FE
:10001000A51E0008A71E0008A91E00080000000079
:10002000000000000000000000000000AB1E0008FF
:10003000AD1E000800000000AF1E0008B11E000841
:10004000691F0008691F0008691F0008691F000870
:10005000691F0008691F0008691F0008691F000860
:10006000691F0008691F0008691F0008691F000850
:10007000691F0008691F0008691F0008691F000840
:10008000691F0008691F0008691F000800000000C0
:10009000000000000000000000000000691F0008D0
:1000A000691F0008691F0008691F0008691F000810
:1000B000BD1E0008691F0008691F0008691F0008AD
:1000C000691F0008691F0008691F0008691F0008F0
:1000D000691F0008691F0008691F00080000000070
:1000E000691F0008691F0008691F00080000000060
:1000F000000000000000000000000000691F000870
:1001000000000000691F0008691F0008691F00083F
:1001100000000000000000000000000000000000DF
:10012000691F0008691F0008691F0008691F00088F
:10013000691F00080000000000000000000000002F
:10014000000000000000000000000000691F00081F
:10015000691F0008691F0008691F0008691F00085F
:10016000691F0008691F000800000000000000006F
:10017000000000000000000000000000000000007F
:1001800000000000691F00080000000000000000DF
:08019000691F0008691F000847
:1001980010B5054C237833B9044B13B10448AFF3B9
:1001A80000800123237010BDB80F0020000000005C
:1001B800B41F000808B5034B1BB103490348AFF34C
:1001C800008008BD00000000BC0F0020B41F00081C
:1001D80053B94AB9002908BF00281CBF4FF0FF31A6
:1001E8004FF0FF3000F072B9ADF1080C6DE904CEA4
:1001F80000F006F8DDF804E0DDE9022304B07047FA
:100208002DE9F047089E04468846002B4BD18A42C8
:10021800154667D9B2FA82F24AB1C2F1200701FA4B
:1002280002F320FA07F7954047EA030894404FEA9B
:10023800154E230CB8FBFEF71FFA85FC0EFB17883A
:1002480043EA084307FB0CF1994209D9EB1807F177
:10025800FF3080F01B81994240F21881023F2B4405
:100268005B1AA4B2B3FBFEF00EFB103344EA03445E
:1002780000FB0CFCA44509D92C1900F1FF3380F0D0
:100288000781A44540F2048102382C4440EA074023
:10029800A4EB0C0400271EB1D4400023C6E9004398
:1002A8003946BDE8F0878B4209D9002E00F0EB8073
:1002B8000027C6E9000138463946BDE8F087B3FA99
:1002C80083F7002F47D18B4202D3824200F2FA8093
:1002D800841A61EB030301209846002EE0D0C6E99A
:1002E8000048DDE702B9FFDEB2FA82F2002A40F0E8
:1002F8008F80491B4FEA154E1FFA85F80127B1FB7D
:10030800FEFC230C0EFB1C1143EA014308FB0CF115
:10031800994207D9EB180CF1FF3002D2994200F24A
:10032800CD808446591AA3B2B1FBFEF00EFB10141F
:1003380043EA044408FB00F8A04507D92C1900F14A
:10034800FF3302D2A04500F2B6801846A4EB080499
:1003580040EA0C409FE7C7F1200CBB4022FA0CFE94
:100368004EEA030E01FA07F420FA0CF521FA0CF311
:100378004FEA1E482543B3FBF8F92C0C08FB193348
:100388001FFA8EFA44EA034309FB0AF49C4202FA74
:1003980007F200FA07F10BD91EEB030309F1FF304E
:1003A80080F087809C4240F28480A9F1020973445E
:1003B8001B1BADB2B3FBF8F008FB103345EA03444E
:1003C80000FB0AFAA24508D91EEB040400F1FF332A
:1003D8006BD2A24569D90238744440EA0940A0FBAF
:1003E8000289A4EB0A044C45C2464B4654D351D06B
:1003F800002E69D0B1EB0A0564EB030404FA0CFC87
:10040800FD40FC404CEA0505C6E90054002747E7D3
:10041800C2F1200320FA03F7954001FA02F021FA0D
:1004280003F34FEA154E3843010CB3FBFEF71FFAEE
:1004380085F80EFB173341EA034107FB08F38B42AB
:1004480004FA02F407D9691807F1FF3C2FD28B424E
:100458002DD9023F2944CB1A81B2B3FBFEF00EFB23
:10046800103341EA034100FB08F38B4207D96918AE
:1004780000F1FF3C17D28B4215D902382944C91A1A
:1004880040EA07473BE73746304609E70746E7E6CD
:100498001846FBE64145ABD2B8EB020A69EB0E02FF
:1004A80001381346A4E76046E9E7184695E767462A
:1004B800D1E781467CE702382C4447E7ACF1020CCF
:1004C8002B442FE7384608E73746E9E6704700BF70
:1004D80010B504460E4B18784FF47A73B3FBF0F35B
:1004E8000C4A1068B0FBF3F000F094F868B90F2CD0
:1004F80001D901200AE0002221464FF0FF3000F028
:1005080049F8034B5C60002000E0012010BD00BFEB
:1005180000000020B40F002008B50B4B1A6842F405
:1005280000721A601A6842F480621A601A6842F40B
:1005380080721A60032000F01BF80020FFF7C8FF44
:1005480001F0F2FB002008BD003C0240034A11689C
:10055800034B1B780B441360704700BFE00F00206B
:1005680000000020014B1868704700BFE00F002012
:10057800074AD36823F4E0631B041B0C000200F451
:10058800E060184340F0BF6040F40030D06070472E
:1005980000ED00E030B4174BDB68C3F30223C3F16E
:1005A8000704042C28BF04241D1D062D18D9033B5D
:1005B8004FF0FF3505FA04F421EA0401994005FAE1
:1005C80003F322EA0303194300280BDB0901C9B22C
:1005D80000F1604000F5614080F8001330BC7047BE
:1005E8000023E5E700F00F000901C9B2024B1954D6
:1005F800F4E700BF00ED00E014ED00E000F01F029A
:10060800400901239340024A42F82030704700BF56
:1006180000E100E00138B0F1807F0AD2064B586053
:10062800064AF02182F823100020986007221A60F9
:1006380070470120704700BF10E000E000ED00E0C7
:10064800042805D0054A136823F004031360704793
:10065800024A136843F004031360704710E000E097
:10066800704708B5FFF7FCFF08BD000000230F2BFB
:1006780000F2C580F0B482B039E0042200E0002224
:10068800B2403A4302345E4E46F824205D4A14686C
:10069800EA4302EA04064F6817F4803F01D045EAAE
:1006A8000406584C2660646802EA04064F6817F48A
:1006B800003F01D045EA0406524C6660A46802EA8D
:1006C80004064F6817F4801F01D045EA04064D4C14
:1006D800A660E46822404E6816F4001F01D045EA7F
:1006E8000402484CE26001330F2B00F2858001229E
:1006F8009A400C6804EA0205AA42F4D14C68022C1C
:1007080001D0122C10D1DE08083650F826C003F0AC
:100718000704A7000F24BC402CEA040C0C69BC4059
:1007280044EA0C0440F8264004685F000326BE40F3
:10073800F64306EA040C4C6804F00304BC4044EA9F
:100748000C0404604C6804F1FF3CBCF1010F03D9B0
:10075800112C01D0122C10D1846806EA040CCC6844
:10076800BC4044EA0C048460446824EA02024C68F1
:10077800C4F300149C4014434460C26816408A685D
:10078800BA403243C2604A6812F0805FABD00022A0
:1007980001921D4A546C44F480445464526C02F42F
:1007A80080420192019A9C08A61C154A52F82670AC
:1007B80003F0030296000F22B24027EA0207134A09
:1007C80090423FF45CAF02F5806290420ED002F591
:1007D800806290420CD002F5806290420AD002F505
:1007E800806290423FF449AF072249E7012247E778
:1007F800022245E7032243E702B0F0BC7047704786
:1008080000380140003C014000380240000002402E
:1008180012B909048161704781617047002800F0AE
:10082800BB8170B582B00446036813F0010F3BD05A
:10083800A74B9B6803F00C03042B2CD0A44B9B689C
:1008480003F00C03082B21D06368B3F5803F4FD029
:10085800B3F5A02F52D09E4B1A6822F480321A604A
:100868001A6822F480221A606368002B50D0FFF7C0
:1008780079FE0546964B1B6813F4003F14D1FFF729
:1008880071FE401B6428F5D903208AE1904B5B6810
:1008980013F4800FD8D08E4B1B6813F4003F03D09D
:1008A8006368002B00F07A81236813F0020F55D09B
:1008B800874B9B6813F00C0F3ED0854B9B6803F069
:1008C8000C03082B33D0E368002B68D0814B01223E
:1008D8001A60FFF747FE05467D4B1B6813F0020FB1
:1008E80054D1FFF73FFE401B0228F5D9032058E1F9
:1008F800774A136843F480331360B5E7744B1A687A
:1009080042F480221A601A6842F480321A60ABE717
:10091800FFF728FE05466E4B1B6813F4003FC3D053
:10092800FFF720FE401B6428F5D9032039E1684B06
:100938005B6813F4800FC6D1654B1B6813F0020F78
:1009480004D0E368012B01D001202AE1604A136832
:1009580023F0F803216943EAC1031360236813F005
:10096800080F40D0636963B35B4B01221A60FFF73D
:10097800F9FD0546564B5B6F13F0020F33D1FFF7B5
:10098800F1FD401B0228F5D903200AE1504A1368FB
:1009980023F0F803216943EAC1031360DEE74D4BF6
:1009A80000221A60FFF7DEFD0546494B1B6813F06D
:1009B800020FD3D0FFF7D6FD401B0228F5D903203C
:1009C800EFE0454B00221A60FFF7CCFD0546404B8F
:1009D8005B6F13F0020F06D0FFF7C4FD401B02281F
:1009E800F5D90320DDE0236813F0040F79D0384BE4
:1009F8001B6C13F0805F33D100230193344B1A6CC6
:100A080042F080521A641B6C03F080530193019BDF
:100A18000125324B1B6813F4807F23D0A368012B78
:100A280034D0052B38D02A4B1A6F22F001021A67EE
:100A38001A6F22F004021A67A368002B36D0FFF75A
:100A480091FD0646224B1B6F13F0020F48D1FFF7AA
:100A580089FD801B41F288339842F3D90320A0E036
:100A68000025D6E71D4A136843F480731360FFF727
:100A780079FD0646194B1B6813F4807FCED1FFF72A
:100A880071FD801B0228F5D903208AE0104A136FF4
:100A980043F001031367CFE70D4B1A6F42F00402CE
:100AA8001A671A6F42F001021A67C5E7FFF75AFD85
:100AB8000646074B1B6F13F0020F11D0FFF752FDCC
:100AC800801B41F288339842F3D9032069E000BFC4
:100AD8000038024000004742800E47420070004044
:100AE800E5B9A369002B5BD0304A926802F00C028A
:100AF800082A58D0022B17D02D4B00221A60FFF776
:100B080031FD0446294B1B6813F0007F42D0FFF7E4
:100B180029FD001B0228F5D9032042E0234A136C63
:100B280023F080531364DCE7214B00221A60FFF79F
:100B380019FD05461D4B1B6813F0007F06D0FFF713
:100B480011FD401B0228F5D903202AE0E369226A37
:100B58001343626A43EA8213A26A5208013A43EADB
:100B68000243E26A43EA0263104A5360104B0122CF
:100B78001A60FFF7F7FC04460C4B1B6813F0007F64
:100B880006D1FFF7EFFC001B0228F5D9032008E087
:100B9800002006E0002004E001207047012000E06A
:100BA800002002B070BD0120FBE700BF0038024002
:100BB80060004742324B9B6803F00C03042B5CD067
:100BC800082B01D02F4870472DE9F04B2C4B5A6861
:100BD80002F03F025B6813F4800F2BD0284B5B6850
:100BE800C3F388131E4600275C010025E41A65EB51
:100BF8000705A90141EA9461A001001B61EB050109
:100C0800CB0043EA5073C400A01943EB07014B0221
:100C180043EAD0534402204619460023FFF7D8FA86
:100C2800174B5B68C3F3014301335B00B0FBF3F080
:100C3800BDE8F08B124B5B68C3F388131E46002790
:100C48005C010025E41A65EB0705A90141EA9461F6
:100C5800A001001B61EB0501CB0043EA5073C400FF
:100C6800A01943EB07018B0243EA90538402204604
:100C780019460023FFF7ACFAD2E70348704700BFD4
:100C8800003802400024F40000127A00002800F026
:100C98009D8070B504464F4B1B6803F00F038B42D1
:100CA80009D2CBB24B4A1370136803F00F038B427F
:100CB80001D0012070BD236813F0020F17D013F084
:100CC800040F04D0444A936843F4E05393602368C4
:100CD80013F0080F04D0404A936843F460439360CC
:100CE8003D4A936823F0F003A068034393600D46E0
:100CF800236813F0010F32D06368012B21D09A1EAC
:100D0800012A25D9344A126812F0020F60D03249FC
:100D18008A6822F0030213438B60FFF723FC064620
:100D28002D4B9B6803F00C036268B3EB820F16D05F
:100D3800FFF718FC801B41F288339842F0D9032052
:100D4800B8E7254A126812F4003FE0D10120B1E764
:100D5800214A126812F0007FD9D10120AAE71D4B61
:100D68001B6803F00F03AB4209D9EAB2194B1A709A
:100D78001B6803F00F03AB4201D001209AE72368F8
:100D880013F0040F06D0144A936823F4E053E16883
:100D98000B439360236813F0080F07D00E4A93683B
:100DA80023F46043216943EAC1039360FFF702FF1C
:100DB800094B9B68C3F30313084AD35CD840084B1C
:100DC80018600020FFF784FB002073E701207047BC
:100DD80001206FE7003C024000380240CC1F0008A9
:100DE800B40F0020014B1868704700BFB40F0020F3
:100DF80008B5FFF7F7FF044B9B68C3F38223034A48
:100E0800D35CD84008BD00BF00380240DC1F000892
:100E180008B5FFF7E7FF044B9B68C3F34233034A67
:100E2800D35CD84008BD00BF00380240DC1F000872
:100E380070B4036A23F001030362036A4268846999
:100E480024F073040D6845EA040623F002048B6855
:100E580023430B4DA84206D0426086614A6842632C
:100E6800036270BC704723F00803CC68234323F067
:100E7800040322F440724C6914438A692243EBE765
:100E88000000014030B4036A23F480730362036AEC
:100E98004268C46924F073040D682C4323F400737A
:100EA8008D6843EA05230D4DA84206D04260C4610F
:100EB8004A68C263036230BC704723F40063CD689C
:100EC80043EA052323F4806322F440524D6942EA41
:100ED80005128D6942EA0512E8E700BF00000140EB
:100EE80030B4036A23F480530362036A4468C26916
:100EF80022F4E6420D6842EA052223F400538D6885
:100F080043EA0533074DA84206D04460C2614A68E7
:100F18000264036230BC704724F480444D6944EA9B
:100F28008514F2E70000014010B4036A046A24F053
:100F380001040462846924F0F00444EA021223F0F4
:100F48000A030B43826103625DF8044B704710B4D7
:100F5800036A23F0100303628469036A24F470446B
:100F680044EA023223F0A00343EA011382610362D8
:100F78005DF8044B7047836823F0700341F0070164
:100F880019438160704710B4846824F47F4442EAAE
:100F980003230B43234383605DF8044B70470268C7
:100FA800D36843F00103D3600268136843F0010378
:100FB800136000207047704790F83830012B7DD0BF
:100FC80010B50446012380F83830022380F8393000
:100FD8000268936823F47F4323F0770393600B68D8
:100FE800402B57D010D9702B3ED01FD8502B47D04C
:100FF800602B32D1CA6849680068FFF7A8FF6021F2
:101008002068FFF7B8FF28E0102B4DD008D9202B17
:101018004FD0302B21D130210068FFF7ACFF1CE006
:10102800DBB900210068FFF7A6FF16E0B3F5805F83
:101038000ED0B3F5005F10D1CB684A6889680068A4
:10104800FFF7A1FF2268936843F48043936004E0AC
:101058000268936823F007039360012384F839300A
:10106800002084F8380010BDCB684A688968006899
:10107800FFF789FF2268936843F077039360ECE7F2
:10108800CA6849680068FFF74FFF50212068FFF7DA
:1010980072FFE2E7CA6849680068FFF745FF402128
:1010A8002068FFF768FFD8E710210068FFF763FFA3
:1010B800D3E720210068FFF75EFFCEE702207047E4
:1010C800704770477047704710B5044603681A693F
:1010D80012F0020F11D0DA6812F0020F0DD06FF083
:1010E80002021A610123037603689B6913F0030F58
:1010F80070D0FFF7E6FF0023237623681A6912F001
:10110800040F12D0DA6812F0040F0ED06FF0040248
:101118001A610223237623689B6913F4407F5FD00A
:101128002046FFF7CEFF0023237623681A6912F0C2
:10113800080F12D0DA6812F0080F0ED06FF008020C
:101148001A61042323762368DB6913F0030F4ED05A
:101158002046FFF7B6FF0023237623681A6912F0AA
:10116800100F12D0DA6812F0100F0ED06FF01002C4
:101178001A61082323762368DB6913F4407F3DD086
:101188002046FFF79EFF0023237623681A6912F092
:10119800010F03D0DA6812F0010F36D123681A69FB
:1011A80012F0800F03D0DA6812F0800F34D1236870
:1011B8001A6912F0400F03D0DA6812F0400F32D1EA
:1011C80023681A6912F0200F03D0DA6812F0200F92
:1011D80030D110BDFFF774FF2046FFF773FF8AE791
:1011E8002046FFF76DFF2046FFF76CFF9BE7204680
:1011F800FFF766FF2046FFF765FFACE72046FFF7DD
:101208005FFF2046FFF75EFFBDE76FF001021A613E
:10121800204600F0C3FBC1E76FF080021A61204648
:1012280000F07AF9C3E76FF040021A612046FFF731
:101238004AFFC5E76FF020021A61204600F06BF9FB
:10124800C7E700000368234A90420ED0B0F1804FF0
:101258000BD0A2F57C42904207D002F58062904202
:1012680003D002F58062904203D123F070034A68EC
:101278001343184A90421AD0B0F1804F17D0A2F504
:101288007C42904213D002F5806290420FD002F562
:10129800806290420BD002F59A32904207D002F554
:1012A8008062904203D002F58062904203D123F419
:1012B8004073CA68134303608B68C3620B68836218
:1012C800044B984202D00123436170470B690363C2
:1012D800F9E700BF00000140A8B110B5044690F836
:1012E80039305BB1022384F83930211D2068FFF7BB
:1012F800A9FF012384F83930002010BD80F8383068
:1013080000F05CFDEEE701207047A8B110B5044677
:1013180090F839305BB1022384F83930211D2068F8
:10132800FFF790FF012384F83930002010BD80F8C2
:101338003830FFF740FEEEE70120704730B4036A0B
:1013480023F010030362036A4468826922F4E642C8
:101358000D6842EA052223F020038D6843EA05134D
:101368000C4DA84206D0446082614A6882630362D9
:1013780030BC704723F08003CD6843EA051323F09F
:10138800400324F440644D6944EA85048D6944EAC5
:101398008504E8E70000014038B590F83830012BA3
:1013A80066D00D460446012380F83830022380F8C1
:1013B80039300C2A1AD8DFE802F007191919201950
:1013C80019193419191947000068FFF731FD226807
:1013D800936943F0080393612268936923F0040337
:1013E80093612268936929690B439361012384F807
:1013F8003930002084F8380038BD0068FFF79EFFB8
:101408002268936943F4006393612268936923F423
:101418008063936122689369296943EA0123936190
:10142800E4E70068FFF72EFD2268D36943F008035C
:10143800D3612268D36923F00403D3612268D36996
:1014480029690B43D361D1E70068FFF749FD22689A
:10145800D36943F40063D3612268D36923F48063BA
:10146800D3612268D369296943EA0123D361BDE7BF
:101478000220C1E710B4012303FA01F4036A23EA46
:1014880004030362036A8A40134303625DF8044B52
:101498007047000010B5044601220068FFF7EAFF14
:1014A8002368074A934206D02268136843F0010371
:1014B8001360002010BD5A6C42F400425A64F3E7EE
:1014C8000000014090F83830012B22D030B40122BE
:1014D80080F83820022380F839300468636823F0E4
:1014E80070036360046863680D682B436360046875
:1014F800A36823F08003A3600468A36849680B43CA
:10150800A36080F83920002380F83830184630BCB2
:101518007047022070477047704700002DE9F84374
:10152800044601680A6922F44052C36813430B61F8
:101538000168CA6822F4164222F00C028368006926
:10154800034360690343E06903431343CB602168A5
:101558004A6922F44072A36913434B61E369B3F506
:10156800004F60D02368B84A934200F0148102F516
:101578008062934200F00F81FFF73AFC00EB800095
:1015880000EB80006568AD00B0FBF5F5AF4FA7FB39
:1015980005356D092E01FFF72BFC00EB800000EBF1
:1015A80080006568AD00B0FBF5F9FFF721FC00EBA2
:1015B800800000EB80006568AD00B0FBF5F5A7FB87
:1015C80005356D094FF0640808FB15952D01323576
:1015D800A7FB05356D0905F0F0053544FFF708FC54
:1015E80000EB800000EB80006668B600B0FBF6F602
:1015F800FFF7FEFB00EB800000EB800063689B00B8
:10160800B0FBF3F0A7FB0030400908FB10684FEA75
:10161800081808F13208A7FB0837C7F343172368EF
:101628002F449F600DE12368874A93425BD002F5FF
:101638008062934257D0FFF7DBFB00EB800000EBA2
:10164800800065686D00B0FBF5F5804FA7FB053598
:101658006D092E01FFF7CCFB00EB800000EB80004A
:1016680065686D00B0FBF5F9FFF7C2FB00EB800081
:1016780000EB800065686D00B0FBF5F5A7FB05354C
:101688006D094FF0640808FB1595ED003235A7FB8E
:1016980005356D096D0005F4F8753544FFF7A8FBAD
:1016A80000EB800000EB800066687600B0FBF6F681
:1016B800FFF79EFB00EB800000EB800063685B0097
:1016C800B0FBF3F3A7FB03235B0908FB13684FEA9E
:1016D800C80808F13208A7FB0837C7F34217236880
:1016E8002F449F60ADE0FFF793FB00EB800000EB19
:1016F800800065686D00B0FBF5F5544FA7FB053514
:101708006D092E01FFF784FB00EB800000EB8000E1
:1017180065686D00B0FBF5F9FFF77AFB00EB800018
:1017280000EB800065686D00B0FBF5F5A7FB05359B
:101738006D094FF0640808FB1595ED003235A7FBDD
:1017480005356D096D0005F4F8753544FFF760FB44
:1017580000EB800000EB800066687600B0FBF6F6D0
:10176800FFF756FB00EB800000EB800063685B002E
:10177800B0FBF3F3A7FB03235B0908FB13684FEAED
:10178800C80808F13208A7FB0837C7F342172368CF
:101798002F449F6055E0FFF73BFB00EB800000EB18
:1017A80080006568AD00B0FBF5F5284FA7FB05354F
:1017B8006D092E01FFF72CFB00EB800000EB800089
:1017C8006568AD00B0FBF5F9FFF722FB00EB800080
:1017D80000EB80006568AD00B0FBF5F5A7FB0535AB
:1017E8006D094FF0640808FB15952D013235A7FBEC
:1017F80005356D0905F0F0053544FFF709FB00EBE9
:10180800800000EB80006668B600B0FBF6F6FFF7D4
:10181800FFFA00EB800000EB800063689B00B0FBE0
:10182800F3F0A7FB0030400908FB10684FEA0818DE
:1018380008F13208A7FB0837C7F3431723682F447A
:101848009F60BDE8F88300BF001001401F85EB5181
:1018580058B310B5044690F839300BB3242384F8F4
:1018680039302268D36823F40053D3602046FFF749
:1018780055FE2268136923F4904313612268536963
:1018880023F02A0353612268D36843F40053D360DA
:101898000020E063202384F8393084F83A3010BD02
:1018A80080F8383000F0CEFAD8E701207047000001
:1018B8002DE9F0418AB000240194334B1A6B42F0B1
:1018C80004021A631A6B02F004020192019A02944C
:1018D8001A6B42F080021A631A6B02F080020292BD
:1018E800029A03941A6B42F001021A631A6B02F00F
:1018F80001020392039A04941A6B42F002021A63DB
:101908001B6B03F002030493049BDFF88C802246D0
:101918004FF478714046FEF77BFF1C4E224680212B
:101928003046FEF775FF1A4F224640213846FEF72B
:101938006FFF4FF400530593164B0693079405A9C0
:101948003046FEF793FE4FF478730593012506950C
:101958000794089405A94046FEF788FE802305935E
:1019680006950794089405A93046FEF77FFE4023A4
:10197800059306950794089405A93846FEF776FE60
:101988000AB0BDE8F08100BF0038024000080240FC
:1019980000040240000021100000024010B4254A53
:1019A800B2F90030244801681944016050681844AD
:1019B8005060946823449360B1F57A7F10DAB0F5EB
:1019C8007A7F2CDAB3F57A7F13DB1A4B00229A6000
:1019D800194AB2F90830B3FA83F35B09138108E0B6
:1019E800154A00231360B2F90430B3FA83F35B0994
:1019F8009380104B104A126803EB8202D1684FF0B3
:101A080080425163596803EB8101C9689163996801
:101A180003EB8103DB68D3635DF8044B7047054B28
:101A280000225A60044AB2F90630B3FA83F35B091C
:101A3800D380DEE708000020D40F0020FEE7000076
:101A480000B58FB033484FF08043036049F63F43F9
:101A58004360002383606422C2600361FFF73CFC9B
:101A6800002834D10EA94FF4805341F8103D29487D
:101A7800FFF7A2FA00282FD12648FFF746FC0028D6
:101A88002FD100230893099308A92248FFF71AFDCC
:101A980060BB60230193002202920392059201A980
:101AA8001C48FFF779FC30BB04220DEB02011948F2
:101AB800FFF772FC20BB082201A91648FFF76CFC4F
:101AC80018BB144800F098F90FB05DF804FB4FF408
:101AD80096711148FFF7B2FF4FF499710E48FFF75E
:101AE800ADFF40F237110C48FFF7A8FF4FF49F7184
:101AF8000948FFF7A3FF40F247110748FFF79EFF89
:101B08004FF4A6710448FFF799FF40F251110248BB
:101B1800FFF794FFE40F0020E41F000808B50B4806
:101B28000B4B03604FF4E133436000238360C360D1
:101B380003610C2242618361C361FFF789FE00B92A
:101B480008BD4FF4B3710348FFF778FF2010002059
:101B580000440040E41F000800B595B0002301933D
:101B6800294A116C41F080511164126C02F08052C4
:101B78000192019A0293254A116841F4404111608B
:101B8800126802F440420292029A0221089101224C
:101B98000B9210220C920E910F9310924FF4A8738F
:101BA800119304231293139308A8FEF737FE08BB7A
:101BB8000F23039302210491002305934FF48052CD
:101BC8000692079303A8FFF761F8C0B9FFF70AF96F
:101BD8000F4BA3FB00308009FEF71CFD0420FEF725
:101BE8002FFD002211464FF0FF30FEF7D3FC15B051
:101BF8005DF804FB4FF480710648FFF71FFF4FF4B0
:101C080087710448FFF71AFF00380240007000404F
:101C1800D34D6210E41F000808B5FEF77DFCFFF7FE
:101C28009BFFFFF745FEFFF70BFFFFF777FF394CE8
:101C380000212046FFF72EFC04212046FFF72AFC4E
:101C480008212046FFF726FC2046FFF7A8F90122C5
:101C580020213148FEF7DCFD25E04FF080435A6A29
:101C68005B6B9A422CBF0022012240212B48FEF7D1
:101C7800CFFD2AE04FF080435A6A9B6B9A422CBFF3
:101C88000022012280212448FEF7C2FD2FE04FF0F8
:101C980080435A6ADB6B9A422CBF00220122402102
:101CA8001D48FEF7B5FD1E4BB3F90430002BD4D008
:101CB8004FF080435A6A5B6B9A422CBF0022012284
:101CC8004FF480711448FEF7A3FD154BB3F90630A5
:101CD800002BCFD04FF080435A6A9B6B9A422CBF9F
:101CE800002201224FF400710B48FEF791FD0C4BC6
:101CF800B3F90830002BCAD04FF080435A6ADB6B27
:101D08009A422CBF0022012280210648FEF780FD5E
:101D1800C9E700BFE40F00200000024000040240B1
:101D2800D40F00200008024010B582B000240094AF
:101D3800214B5A6C42F480425A645A6C02F4804235
:101D48000092009A01941A6C42F080521A641B6C3B
:101D580003F080530193019B0720FEF709FC2246FC
:101D680021466FF00B00FEF715FC224621466FF066
:101D78000A00FEF70FFC224621466FF00900FEF725
:101D880009FC224621466FF00400FEF703FC2246B8
:101D980021466FF00300FEF7FDFB224621466FF057
:101DA8000100FEF7F7FB224621464FF0FF30FEF711
:101DB800F1FB02B010BD00BF003802400368B3F168
:101DC800804F00D0704700B583B00021019103F522
:101DD8000E331A6C42F001021A641B6C03F0010303
:101DE8000193019B0A461C20FEF7D4FB1C20FEF73A
:101DF80005FC03B05DF804FB0368B3F1804F00D025
:101E0800704770B586B0032301930226029600241A
:101E1800039404940125059501A90848FEF726FCBA
:101E28004FF480630193029603940494059501A9E5
:101E38000348FEF71BFC06B070BD00BF000002405F
:101E4800000402400268114B9A4200D0704700B566
:101E580087B0002300930E4B1A6C42F400321A64C8
:101E68001B6C03F400330093009B0C2301930223A3
:101E7800029301230393032304930723059301A9E2
:101E88000448FEF7F3FB07B05DF804FB004400408C
:101E980000380240000002407047FEE7FEE7FEE718
:101EA800FEE770477047704708B5FEF74FFBFEF72F
:101EB800D8FB08BD08B50248FFF706F908BD00BF02
:101EC800E40F00200F49D1F8883043F47003C1F8BB
:101ED80088300D4B1A6842F001021A6000209860A1
:101EE8001A6822F0847222F480321A60074A5A6013
:101EF8001A6822F480221A60D8604FF000638B6061
:101F0800704700BF00ED00E00038024010300024A8
:101F1800DFF834D0002103E00C4B5B584350043108
:101F28000B480C4B42189A42F6D30B4A02E00023A6
:101F380042F8043B094B9A42F9D3FFF7C3FF00F07C
:101F480011F8FFF769FE704700000220042000081E
:101F580000000020B80F0020B80F002060100020FB
:101F6800FEE7000070B50D4E0D4CA41BA410002513
:101F7800A54209D10B4E0C4C00F018F8A41BA41074
:101F88000025A54205D170BD56F825309847013582
:101F9800EEE756F8253098470135F2E7FC1F0008B0
:101FA800FC1F0008FC1F000800200008F8B500BF4F
:101FB800F8BC08BC9E467047F8B500BFF8BC08BC22
:041FC8009E4670477A
:101FCC0000000000000000000102030406070809DD
:101FDC0000000000010203042E2E2F5372632F6D9C
:081FEC0061696E2E6300000024
:081FF40014E2FF7F0100000070
:041FFC00BD0100081B
:04200000990100083A
:1020040001000000100000000A000000A20000000F
:102014004D010000320000003200000032000000D8
:1020240032000000330000003300000033000000E1
:1020340033000000330000003300000034000000CF
:1020440034000000340000003400000034000000BC
:1020540034000000350000003500000035000000A9
:102064003500000035000000350000003500000098
:102074003600000036000000360000003600000084
:102084003600000036000000370000003700000072
:102094003700000037000000370000003700000060
:1020A400370000003800000038000000380000004D
:1020B400380000003800000038000000390000003B
:1020C4003900000039000000390000003900000028
:1020D400390000003A0000003A0000003A00000015
:1020E4003A0000003A0000003A0000003A00000004
:1020F4003B0000003B0000003B0000003B000000F0
:102104003B0000003B0000003C0000003C000000DD
:102114003C0000003C0000003C0000003C000000CB
:102124003C0000003D0000003D0000003D000000B8
:102134003D0000003D0000003D0000003E000000A6
:102144003E0000003E0000003E0000003E00000093
:102154003E0000003E0000003F0000003F00000081
:102164003F0000003F0000003F0000003F0000006F
:102174003F0000004000000040000000400000005C
:10218400400000004000000040000000410000004A
:102194004100000041000000410000004100000037
:1021A4004100000041000000420000004200000025
:1021B4004200000042000000420000004200000013
:1021C4004200000043000000430000004300000000
:1021D40043000000430000004300000044000000EE
:1021E40044000000440000004400000044000000DB
:1021F40044000000440000004500000045000000C9
:1022040045000000450000004500000045000000B6
:1022140045000000460000004600000046000000A3
:102224004600000046000000460000004600000092
:10223400470000004700000047000000470000007E
:10224400470000004700000047000000480000006D
:10225400480000004800000048000000480000005A
:102264004800000048000000490000004900000048
:102274004900000049000000490000004900000036
:10228400490000004A0000004A0000004A00000023
:102294004A0000004A0000004A0000004A00000012
:1022A4004A0000004B0000004B0000004B000000FF
:1022B4004B0000004B0000004B0000004B000000EE
:1022C4004C0000004C0000004C0000004C000000DA
:1022D4004C0000004C0000004C0000004D000000C9
:1022E4004D0000004D0000004D0000004D000000B6
:1022F4004D0000004D0000004D0000004E000000A5
:102304004E0000004E0000004E0000004E00000091
:102314004E0000004E0000004E0000004F00000080
:102324004F0000004F0000004F0000004F0000006D
:102334004F0000004F00000050000000500000005B
:102344005000000050000000500000005000000049
:102354005000000050000000510000005100000037
:102364005100000051000000510000005100000025
:102374005100000051000000520000005200000013
:102384005200000052000000520000005200000001
:1023940052000000520000005200000053000000F0
:1023A40053000000530000005300000053000000DD
:1023B40053000000530000005300000054000000CC
:1023C40054000000540000005400000054000000B9
:1023D40054000000540000005400000054000000A9
:1023E4005500000055000000550000005500000095
:1023F4005500000055000000550000005500000085
:102404005500000056000000560000005600000071
:102414005600000056000000560000005600000060
:10242400560000005600000057000000570000004E
:10243400570000005700000057000000570000003C
:10244400570000005700000057000000580000002B
:102454005800000058000000580000005800000018
:102464005800000058000000580000005800000008
:1024740058000000590000005900000059000000F5
:1024840059000000590000005900000059000000E4
:102494005900000059000000590000005A000000D3
:1024A4005A0000005A0000005A0000005A000000C0
:1024B4005A0000005A0000005A0000005A000000B0
:1024C4005A0000005A0000005B0000005B0000009E
:1024D4005B0000005B0000005B0000005B0000008C
:1024E4005B0000005B0000005B0000005B0000007C
:1024F4005B0000005C0000005C0000005C00000069
:102504005C0000005C0000005C0000005C00000057
:102514005C0000005C0000005C0000005C00000047
:102524005C0000005D0000005D0000005D00000034
:102534005D0000005D0000005D0000005D00000023
:102544005D0000005D0000005D0000005D00000013
:102554005D0000005E0000005E0000005E00000000
:102564005E0000005E0000005E0000005E000000EF
:102574005E0000005E0000005E0000005E000000DF
:102584005E0000005E0000005E0000005F000000CE
:102594005F0000005F0000005F0000005F000000BB
:1025A4005F0000005F0000005F0000005F000000AB
:1025B4005F0000005F0000005F0000005F0000009B
:1025C4005F00000060000000600000006000000088
:1025D4006000000060000000600000006000000077
:1025E4006000000060000000600000006000000067
:1025F4006000000060000000600000006000000057
:102604006000000060000000610000006100000044
:102614006100000061000000610000006100000032
:102624006100000061000000610000006100000022
:102634006100000061000000610000006100000012
:102644006100000061000000610000006100000002
:1026540062000000620000006200000062000000EE
:1026640062000000620000006200000062000000DE
:1026740062000000620000006200000062000000CE
:1026840062000000620000006200000062000000BE
:1026940062000000620000006200000062000000AE
:1026A400620000006200000062000000630000009D
:1026B400630000006300000063000000630000008A
:1026C400630000006300000063000000630000007A
:1026D400630000006300000063000000630000006A
:1026E400630000006300000063000000630000005A
:1026F400630000006300000063000000630000004A
:102704006300000063000000630000006300000039
:102714006300000063000000630000006300000029
:102724006300000063000000630000006300000019
:102734006400000064000000640000006400000005
:1027440064000000640000006400000064000000F5
:1027540064000000640000006400000064000000E5
:1027640064000000640000006400000064000000D5
:1027740064000000640000006400000064000000C5
:1027840064000000640000006400000064000000B5
:1027940064000000640000006400000064000000A5
:1027A4006400000064000000640000006400000095
:1027B4006400000064000000640000006400000085
:1027C4006400000064000000640000006400000075
:1027D4006400000064000000640000006400000065
:1027E4006400000064000000640000006400000055
:1027F4006400000064000000640000006400000045
:102804006400000064000000640000006400000034
:102814006400000064000000640000006400000024
:102824006400000064000000640000006400000014
:102834006400000064000000640000006400000004
:1028440064000000640000006400000064000000F4
:1028540064000000640000006400000064000000E4
:1028640064000000640000006400000064000000D4
:1028740064000000640000006400000064000000C4
:1028840064000000640000006400000064000000B4
:1028940064000000640000006400000063000000A5
:1028A4006300000063000000630000006300000098
:1028B4006300000063000000630000006300000088
:1028C4006300000063000000630000006300000078
:1028D4006300000063000000630000006300000068
:1028E4006300000063000000630000006300000058
:1028F4006300000063000000630000006300000048
:102904006300000063000000630000006300000037
:102914006300000063000000630000006300000027
:10292400620000006200000062000000620000001B
:10293400620000006200000062000000620000000B
:1029440062000000620000006200000062000000FB
:1029540062000000620000006200000062000000EB
:1029640062000000620000006200000062000000DB
:1029740062000000620000006200000061000000CC
:1029840061000000610000006100000061000000BF
:1029940061000000610000006100000061000000AF
:1029A400610000006100000061000000610000009F
:1029B400610000006100000061000000610000008F
:1029C4006100000060000000600000006000000082
:1029D4006000000060000000600000006000000073
:1029E4006000000060000000600000006000000063
:1029F4006000000060000000600000006000000053
:102A040060000000600000005F0000005F00000044
:102A14005F0000005F0000005F0000005F00000036
:102A24005F0000005F0000005F0000005F00000026
:102A34005F0000005F0000005F0000005F00000016
:102A44005E0000005E0000005E0000005E0000000A
:102A54005E0000005E0000005E0000005E000000FA
:102A64005E0000005E0000005E0000005E000000EA
:102A74005E0000005E0000005D0000005D000000DC
:102A84005D0000005D0000005D0000005D000000CE
:102A94005D0000005D0000005D0000005D000000BE
:102AA4005D0000005D0000005C0000005C000000B0
:102AB4005C0000005C0000005C0000005C000000A2
:102AC4005C0000005C0000005C0000005C00000092
:102AD4005C0000005C0000005B0000005B00000084
:102AE4005B0000005B0000005B0000005B00000076
:102AF4005B0000005B0000005B0000005B00000066
:102B04005B0000005A0000005A0000005A00000058
:102B14005A0000005A0000005A0000005A00000049
:102B24005A0000005A0000005A0000005A00000039
:102B3400590000005900000059000000590000002D
:102B4400590000005900000059000000590000001D
:102B5400590000005900000058000000580000000F
:102B64005800000058000000580000005800000001
:102B740058000000580000005800000058000000F1
:102B840057000000570000005700000057000000E5
:102B940057000000570000005700000057000000D5
:102BA40057000000560000005600000056000000C8
:102BB40056000000560000005600000056000000B9
:102BC40056000000560000005500000055000000AB
:102BD400550000005500000055000000550000009D
:102BE400550000005500000055000000540000008E
:102BF4005400000054000000540000005400000081
:102C04005400000054000000540000005400000070
:102C14005300000053000000530000005300000064
:102C24005300000053000000530000005300000054
:102C34005200000052000000520000005200000048
:102C44005200000052000000520000005200000038
:102C5400520000005100000051000000510000002B
:102C6400510000005100000051000000510000001C
:102C7400510000005000000050000000500000000F
:102C84005000000050000000500000005000000000
:102C9400500000004F0000004F0000004F000000F3
:102CA4004F0000004F0000004F0000004F000000E4
:102CB4004E0000004E0000004E0000004E000000D8
:102CC4004E0000004E0000004E0000004E000000C8
:102CD4004D0000004D0000004D0000004D000000BC
:102CE4004D0000004D0000004D0000004D000000AC
:102CF4004C0000004C0000004C0000004C000000A0
:102D04004C0000004C0000004C0000004B00000090
:102D14004B0000004B0000004B0000004B00000083
:102D24004B0000004B0000004A0000004A00000075
:102D34004A0000004A0000004A0000004A00000067
:102D44004A0000004A000000490000004900000059
:102D5400490000004900000049000000490000004B
:102D6400490000004800000048000000480000003E
:102D7400480000004800000048000000480000002F
:102D84004700000047000000470000004700000023
:102D94004700000047000000470000004600000014
:102DA4004600000046000000460000004600000007
:102DB40046000000460000004500000045000000F9
:102DC40045000000450000004500000045000000EB
:102DD40045000000440000004400000044000000DE
:102DE40044000000440000004400000044000000CF
:102DF40043000000430000004300000043000000C3
:102E040043000000430000004200000042000000B4
:102E140042000000420000004200000042000000A6
:102E24004200000041000000410000004100000099
:102E3400410000004100000041000000410000008A
:102E4400400000004000000040000000400000007E
:102E540040000000400000003F0000003F00000070
:102E64003F0000003F0000003F0000003F00000062
:102E74003F0000003E0000003E0000003E00000055
:102E84003E0000003E0000003E0000003E00000046
:102E94003D0000003D0000003D0000003D0000003A
:102EA4003D0000003D0000003C0000003C0000002C
:102EB4003C0000003C0000003C0000003C0000001E
:102EC4003C0000003B0000003B0000003B00000011
:102ED4003B0000003B0000003B0000003A00000003
:102EE4003A0000003A0000003A0000003A000000F6
:102EF4003A0000003A0000003900000039000000E8
:102F040039000000390000003900000039000000D9
:102F140038000000380000003800000038000000CD
:102F240038000000380000003700000037000000BF
:102F340037000000370000003700000037000000B1
:102F440037000000360000003600000036000000A4
:102F54003600000036000000360000003500000096
:102F64003500000035000000350000003500000089
:102F7400350000003500000034000000340000007B
:102F8400340000003400000034000000340000006D
:102F94003300000033000000330000003300000061
:102FA4003300000033000000320000003200000053
:082FB400320000000024F400CB
:0400000508001F19B7
:00000001FF
