:020000040800F2
:10000000000002202D1B0008B51A0008B71A0008CE
:10001000B91A0008BB1A0008BD1A00080000000049
:10002000000000000000000000000000BF1A0008EF
:10003000C11A000800000000C31A0008C51A000811
:100040007D1B00087D1B00087D1B00087D1B000830
:100050007D1B00087D1B00087D1B00087D1B000820
:100060007D1B00087D1B00087D1B00087D1B000810
:100070007D1B00087D1B00087D1B00087D1B000800
:100080007D1B00087D1B00087D1B00087D1B0008F0
:100090007D1B00087D1B00087D1B00087D1B0008E0
:1000A0007D1B00087D1B00087D1B00087D1B0008D0
:1000B000D11A00087D1B00087D1B00087D1B00086D
:1000C0007D1B00087D1B00087D1B00087D1B0008B0
:1000D0007D1B00087D1B00087D1B00087D1B0008A0
:1000E0007D1B00087D1B00087D1B00087D1B000890
:1000F0007D1B00087D1B00087D1B00087D1B000880
:100100007D1B00087D1B00087D1B00087D1B00086F
:100110007D1B00087D1B00087D1B00087D1B00085F
:100120007D1B00087D1B00087D1B00087D1B00084F
:100130007D1B000800000000000000007D1B00087F
:100140007D1B00087D1B00087D1B00087D1B00082F
:100150007D1B00087D1B00087D1B00087D1B00081F
:100160007D1B00087D1B00087D1B00087D1B00080F
:100170007D1B00087D1B000800000000000000003F
:080180007D1B00087D1B000837
:1001880010B5054C237833B9044B13B10448AFF3C9
:1001980000800123237010BDD40700200000000058
:1001A800C81B000808B5034B1BB103490348AFF34C
:1001B800008008BD00000000D8070020C81B000808
:1001C80053B94AB9002908BF00281CBF4FF0FF31B6
:1001D8004FF0FF3000F072B9ADF1080C6DE904CEB4
:1001E80000F006F8DDF804E0DDE9022304B070470A
:1001F8002DE9F047089E04468846002B4BD18A42D9
:10020800154667D9B2FA82F24AB1C2F1200701FA5B
:1002180002F320FA07F7954047EA030894404FEAAB
:10022800154E230CB8FBFEF71FFA85FC0EFB17884A
:1002380043EA084307FB0CF1994209D9EB1807F187
:10024800FF3080F01B81994240F21881023F2B4415
:100258005B1AA4B2B3FBFEF00EFB103344EA03446E
:1002680000FB0CFCA44509D92C1900F1FF3380F0E0
:100278000781A44540F2048102382C4440EA074033
:10028800A4EB0C0400271EB1D4400023C6E90043A8
:100298003946BDE8F0878B4209D9002E00F0EB8083
:1002A8000027C6E9000138463946BDE8F087B3FAA9
:1002B80083F7002F47D18B4202D3824200F2FA80A3
:1002C800841A61EB030301209846002EE0D0C6E9AA
:1002D8000048DDE702B9FFDEB2FA82F2002A40F0F8
:1002E8008F80491B4FEA154E1FFA85F80127B1FB8D
:1002F800FEFC230C0EFB1C1143EA014308FB0CF126
:10030800994207D9EB180CF1FF3002D2994200F25A
:10031800CD808446591AA3B2B1FBFEF00EFB10142F
:1003280043EA044408FB00F8A04507D92C1900F15A
:10033800FF3302D2A04500F2B6801846A4EB0804A9
:1003480040EA0C409FE7C7F1200CBB4022FA0CFEA4
:100358004EEA030E01FA07F420FA0CF521FA0CF321
:100368004FEA1E482543B3FBF8F92C0C08FB193358
:100378001FFA8EFA44EA034309FB0AF49C4202FA84
:1003880007F200FA07F10BD91EEB030309F1FF305E
:1003980080F087809C4240F28480A9F1020973446E
:1003A8001B1BADB2B3FBF8F008FB103345EA03445E
:1003B80000FB0AFAA24508D91EEB040400F1FF333A
:1003C8006BD2A24569D90238744440EA0940A0FBBF
:1003D8000289A4EB0A044C45C2464B4654D351D07B
:1003E800002E69D0B1EB0A0564EB030404FA0CFC97
:1003F800FD40FC404CEA0505C6E90054002747E7E4
:10040800C2F1200320FA03F7954001FA02F021FA1D
:1004180003F34FEA154E3843010CB3FBFEF71FFAFE
:1004280085F80EFB173341EA034107FB08F38B42BB
:1004380004FA02F407D9691807F1FF3C2FD28B425E
:100448002DD9023F2944CB1A81B2B3FBFEF00EFB33
:10045800103341EA034100FB08F38B4207D96918BE
:1004680000F1FF3C17D28B4215D902382944C91A2A
:1004780040EA07473BE73746304609E70746E7E6DD
:100488001846FBE64145ABD2B8EB020A69EB0E020F
:1004980001381346A4E76046E9E7184695E767463A
:1004A800D1E781467CE702382C4447E7ACF1020CDF
:1004B8002B442FE7384608E73746E9E6704700BF80
:1004C80010B504460E4B18784FF47A73B3FBF0F36B
:1004D8000C4A1068B0FBF3F000F094F868B90F2CE0
:1004E80001D901200AE0002221464FF0FF3000F038
:1004F80049F8034B5C60002000E0012010BD00BFFC
:1005080000000020D007002008B50B4B1A6842F401
:1005180000721A601A6842F480621A601A6842F41B
:1005280080721A60032000F01BF80020FFF7C8FF54
:1005380001F03AFA002008BD003C0240034A116865
:10054800034B1B780B441360704700BFFC07002067
:1005580000000020014B1868704700BFFC0700200E
:10056800074AD36823F4E0631B041B0C000200F461
:10057800E060184340F0BF6040F40030D06070473E
:1005880000ED00E030B4174BDB68C3F30223C3F17E
:100598000704042C28BF04241D1D062D18D9033B6D
:1005A8004FF0FF3505FA04F421EA0401994005FAF1
:1005B80003F322EA0303194300280BDB0901C9B23C
:1005C80000F1604000F5614080F8001330BC7047CE
:1005D8000023E5E700F00F000901C9B2024B1954E6
:1005E800F4E700BF00ED00E014ED00E000F01F02AA
:1005F800400901239340024A42F82030704700BF67
:1006080000E100E00138B0F1807F0AD2064B586063
:10061800064AF02182F823100020986007221A6009
:1006280070470120704700BF10E000E000ED00E0D7
:10063800042805D0054A136823F0040313607047A3
:10064800024A136843F004031360704710E000E0A7
:10065800704708B5FFF7FCFF08BD000000230F2B0B
:1006680000F2D780F0B482B039E0072200E000221F
:10067800B2403A430234674E46F82420664A14686A
:10068800EA4302EA04064F6817F4803F01D045EABE
:100698000406614C2660646802EA04064F6817F491
:1006A800003F01D045EA04065B4C6660A46802EA94
:1006B80004064F6817F4801F01D045EA0406564C1B
:1006C800A660E46822404E6816F4001F01D045EA8F
:1006D8000402514CE26001330F2B00F29780012293
:1006E8009A400C6804EA0205AA42F4D14C68022C2C
:1006F80001D0122C10D1DE08083650F826C003F0BD
:100708000704A7000F24BC402CEA040C0C69BC4069
:1007180044EA0C0440F8264004685F000326BE4003
:10072800F64306EA040C4C6804F00304BC4044EAAF
:100738000C0404604C6804F1FF3CBCF1010F03D9C0
:10074800112C01D0122C10D1846806EA040CCC6854
:10075800BC4044EA0C048460446824EA02024C6801
:10076800C4F300149C4014434460C26816408A686D
:10077800BA403243C2604A6812F0805FABD00022B0
:100788000192264A546C44F480445464526C02F436
:1007980080420192019A9C08A61C1E4A52F82670B3
:1007A80003F0030296000F22B24027EA02071C4A10
:1007B80090423FF45CAF02F5806290421AD002F595
:1007C8008062904218D002F58062904216D002F5FD
:1007D8008062904214D002F58062904212D002F5F5
:1007E8008062904210D002F5806290423FF43DAFA3
:1007F80008223DE701223BE7022239E7032237E7D7
:10080800042235E7052233E7062231E702B0F0BCBF
:100818007047704700380140003C014000380240F2
:100828000000024012B90904816170478161704774
:10083800002800F0BB8170B582B00446036813F04D
:10084800010F3BD0A74B9B6803F00C03042B2CD063
:10085800A44B9B6803F00C03082B21D06368B3F505
:10086800803F4FD0B3F5A02F52D09E4B1A6822F488
:1008780080321A601A6822F480221A606368002B9A
:1008880050D0FFF767FE0546964B1B6813F4003FF0
:1008980014D1FFF75FFE401B6428F5D903208AE1D5
:1008A800904B5B6813F4800FD8D08E4B1B6813F401
:1008B800003F03D06368002B00F07A81236813F0AF
:1008C800020F55D0874B9B6813F00C0F3ED0854B19
:1008D8009B6803F00C03082B33D0E368002B68D027
:1008E800814B01221A60FFF735FE05467D4B1B68D8
:1008F80013F0020F54D1FFF72DFE401B0228F5D943
:10090800032058E1774A136843F480331360B5E74E
:10091800744B1A6842F480221A601A6842F48032D2
:100928001A60ABE7FFF716FE05466E4B1B6813F41B
:10093800003FC3D0FFF70EFE401B6428F5D9032003
:1009480039E1684B5B6813F4800FC6D1654B1B68AF
:1009580013F0020F04D0E368012B01D001202AE133
:10096800604A136823F0F803216943EAC10313605E
:10097800236813F0080F40D0636963B35B4B01220F
:100988001A60FFF7E7FD0546564B5B6F13F0020F41
:1009980033D1FFF7DFFD401B0228F5D903200AE118
:1009A800504A136823F0F803216943EAC10313602E
:1009B800DEE74D4B00221A60FFF7CCFD0546494B98
:1009C8001B6813F0020FD3D0FFF7C4FD401B0228A9
:1009D800F5D90320EFE0454B00221A60FFF7BAFD76
:1009E8000546404B5B6F13F0020F06D0FFF7B2FDD0
:1009F800401B0228F5D90320DDE0236813F0040F1B
:100A080079D0384B1B6C13F0805F33D100230193EE
:100A1800344B1A6C42F080521A641B6C03F08053FA
:100A28000193019B0125324B1B6813F4807F23D06F
:100A3800A368012B34D0052B38D02A4B1A6F22F02B
:100A480001021A671A6F22F004021A67A368002BC2
:100A580036D0FFF77FFD0646224B1B6F13F0020FBF
:100A680048D1FFF777FD801B41F288339842F3D9CC
:100A78000320A0E00025D6E71D4A136843F48073DD
:100A88001360FFF767FD0646194B1B6813F4807F58
:100A9800CED1FFF75FFD801B0228F5D903208AE03D
:100AA800104A136F43F001031367CFE70D4B1A6F1A
:100AB80042F004021A671A6F42F001021A67C5E78A
:100AC800FFF748FD0646074B1B6F13F0020F11D0C6
:100AD800FFF740FD801B41F288339842F3D9032089
:100AE80069E000BF0038024000004742800E4742DC
:100AF80000700040E5B9A369002B5BD0304A9268CA
:100B080002F00C02082A58D0022B17D02D4B0022D5
:100B18001A60FFF71FFD0446294B1B6813F0007F7E
:100B280042D0FFF717FD001B0228F5D9032042E049
:100B3800234A136C23F080531364DCE7214B002213
:100B48001A60FFF707FD05461D4B1B6813F0007F71
:100B580006D0FFF7FFFC401B0228F5D903202AE046
:100B6800E369226A1343626A43EA8213A26A52085B
:100B7800013A43EA0243E26A43EA0263104A5360D5
:100B8800104B01221A60FFF7E5FC04460C4B1B686A
:100B980013F0007F06D1FFF7DDFC001B0228F5D912
:100BA800032008E0002006E0002004E00120704750
:100BB800012000E0002002B070BD0120FBE700BF6B
:100BC8000038024060004742264B9B6803F00C0344
:100BD800042B44D0082B01D0234870472DE9F04B53
:100BE800204B5A6802F03F025B6813F4800F13D061
:100BF8001C4B5968C1F3881100231C48A1FB000154
:100C0800FFF7DEFA174B5B68C3F3014301335B0060
:100C1800B0FBF3F0BDE8F08B124B5B68C3F38813AD
:100C28001E4600275C010025E41A65EB0705A901AB
:100C380041EA9461A001001B61EB0501CB0043EA86
:100C48005073C400A01943EB07018B0243EA905389
:100C58008402204619460023FFF7B2FAD2E7034878
:100C6800704700BF003802400024F40040787D013E
:100C7800002800F09D8070B504464F4B1B6803F0B8
:100C88000F038B4209D2CBB24B4A1370136803F09F
:100C98000F038B4201D0012070BD236813F0020FAF
:100CA80017D013F0040F04D0444A936843F4E05378
:100CB8009360236813F0080F04D0404A936843F404
:100CC800604393603D4A936823F0F003A0680343B0
:100CD80093600D46236813F0010F32D06368012B2F
:100CE80021D09A1E012A25D9344A126812F0020F1F
:100CF80060D032498A6822F0030213438B60FFF701
:100D080029FC06462D4B9B6803F00C036268B3EB85
:100D1800820F16D0FFF71EFC801B41F288339842E1
:100D2800F0D90320B8E7254A126812F4003FE0D151
:100D38000120B1E7214A126812F0007FD9D10120C1
:100D4800AAE71D4B1B6803F00F03AB4209D9EAB2AF
:100D5800194B1A701B6803F00F03AB4201D0012036
:100D68009AE7236813F0040F06D0144A936823F413
:100D7800E053E1680B439360236813F0080F07D032
:100D88000E4A936823F46043216943EAC1039360E0
:100D9800FFF71AFF094B9B68C3F30313084AD35C98
:100DA800D840084B18600020FFF78AFB002073E743
:100DB8000120704701206FE7003C024000380240E4
:100DC800E01B0008D0070020014B1868704700BFDF
:100DD800D007002070B4036A23F001030362036A9A
:100DE8004268846924F073040D6845EA040623F018
:100DF80002048B6823430C4DA84202D00B4CA0423E
:100E08000BD123F00803CD682B4323F0040322F40D
:100E180040724D6915438A692A43426086614A686F
:100E28004263036270BC7047000001400004014047
:100E380030B4036A23F480730362036A4268C469A6
:100E480024F073040D682C4323F400738D6843EA7F
:100E580005230E4DA84203D005F58065A8420ED1A2
:100E680023F40063CD6843EA052323F4806322F466
:100E780040524D6942EA05128D6942EA0512426004
:100E8800C4614A68C263036230BC70470000014015
:100E980030B4036A23F480530362036A4468C26966
:100EA80022F4E6420D6842EA052223F400538D68D5
:100EB80043EA0533094DA84203D005F58065A842E9
:100EC80004D124F480444D6944EA85144460C26125
:100ED8004A680264036230BC704700BF00000140EA
:100EE80010B4036A046A24F001040462846924F0DB
:100EF800F00444EA021223F00A030B4382610362FE
:100F08005DF8044B704710B4036A23F010030362C2
:100F18008469036A24F4704444EA023223F0A0038B
:100F280043EA0113826103625DF8044B70478368EA
:100F380023F0700341F0070119438160704710B432
:100F4800846824F47F4442EA03230B4323438360E9
:100F58005DF8044B70470268D36843F00103D3601F
:100F68000268136843F0010313600020704770475C
:100F780090F83830012B7DD010B50446012380F855
:100F88003830022380F839300268936823F47F43AD
:100F980023F0770393600B68402B57D010D9702B40
:100FA8003ED01FD8502B47D0602B32D1CA68496831
:100FB8000068FFF7A8FF60212068FFF7B8FF28E066
:100FC800102B4DD008D9202B4FD0302B21D13021D8
:100FD8000068FFF7ACFF1CE0DBB900210068FFF7F1
:100FE800A6FF16E0B3F5805F0ED0B3F5005F10D111
:100FF800CB684A6889680068FFF7A1FF2268936890
:1010080043F48043936004E00268936823F0070385
:101018009360012384F83930002084F8380010BD2B
:10102800CB684A6889680068FFF789FF2268936877
:1010380043F077039360ECE7CA6849680068FFF7F4
:101048004FFF50212068FFF772FFE2E7CA6849683E
:101058000068FFF745FF40212068FFF768FFD8E7E1
:1010680010210068FFF763FFD3E720210068FFF72E
:101078005EFFCEE7022070477047704770477047A1
:10108800704710B5044603681A6912F0020F11D0B0
:10109800DA6812F0020F0DD06FF002021A61012314
:1010A800037603689B6913F0030F70D0FFF7E6FF20
:1010B8000023237623681A6912F0040F12D0DA6825
:1010C80012F0040F0ED06FF004021A610223237687
:1010D80023689B6913F4407F5FD02046FFF7CEFF5B
:1010E8000023237623681A6912F0080F12D0DA68F1
:1010F80012F0080F0ED06FF008021A61042323764D
:101108002368DB6913F0030F4ED02046FFF7B6FFC4
:101118000023237623681A6912F0100F12D0DA68B8
:1011280012F0100F0ED06FF010021A610823237608
:101138002368DB6913F4407F3DD02046FFF79EFF0C
:101148000023237623681A6912F0010F03D0DA68A6
:1011580012F0010F36D123681A6912F0800F03D0FC
:10116800DA6812F0800F34D123681A6912F0400F40
:1011780003D0DA6812F0400F32D123681A6912F0EE
:10118800200F03D0DA6812F0200F30D110BDFFF71E
:1011980074FF2046FFF773FF8AE72046FFF76DFFCD
:1011A8002046FFF76CFF9BE72046FFF766FF2046C7
:1011B800FFF765FFACE72046FFF75FFF2046FFF724
:1011C8005EFFBDE76FF001021A612046FFF754FF8A
:1011D800C1E76FF080021A61204600F097F9C3E773
:1011E8006FF040021A612046FFF74AFFC5E76FF02B
:1011F80020021A61204600F088F9C7E703682E4AE2
:10120800904212D0B0F1804F0FD0A2F57C429042AC
:101218000BD002F58062904207D002F580629042BE
:1012280003D002F57842904203D123F070034A6854
:101238001343214A90422AD0B0F1804F27D0A2F51B
:101248007C42904223D002F5806290421FD002F582
:10125800806290421BD002F57842904217D002F586
:101268007052904213D002F5806290420FD002F57E
:10127800806290420BD0A2F59832904207D002F5D6
:101288008062904203D002F58062904203D123F439
:101298004073CA68134303608B68C3620B68836238
:1012A800054B984203D003F58063984201D10B693E
:1012B800036301234361704700000140A8B110B5E2
:1012C800044690F839305BB1022384F83930211D87
:1012D8002068FFF793FF012384F83930002010BD00
:1012E80080F8383000F0AAFBEEE701207047A8B17B
:1012F80010B5044690F839305BB1022384F83930D0
:10130800211D2068FFF77AFF012384F83930002077
:1013180010BD80F83830FFF72AFEEEE7012070474D
:1013280030B4036A23F010030362036A44688269D5
:1013380022F4E6420D6842EA052223F020038D6874
:1013480043EA05130E4DA84203D005F58065A8426F
:101358000ED123F08003CD6843EA051323F0400340
:1013680024F440644D6944EA85048D6944EA85049F
:10137800446082614A688263036230BC704700BF80
:101388000000014038B590F83830012B66D00D4682
:101398000446012380F83830022380F839300C2ABB
:1013A8001AD8DFE802F00719191920191919341980
:1013B800191947000068FFF70DFD2268936943F08B
:1013C800080393612268936923F0040393612268F8
:1013D800936929690B439361012384F8393000200C
:1013E80084F8380038BD0068FFF79AFF22689369CF
:1013F80043F4006393612268936923F480639361E3
:1014080022689369296943EA01239361E4E7006844
:10141800FFF70EFD2268D36943F00803D361226801
:10142800D36923F00403D3612268D36929690B4384
:10143800D361D1E70068FFF72BFD2268D36943F435
:101448000063D3612268D36923F48063D36122687F
:10145800D369296943EA0123D361BDE70220C1E7C3
:1014680010B4012303FA01F4036A23EA04030362B4
:10147800036A8A40134303625DF8044B7047000017
:1014880010B5044601220068FFF7EAFF2368094AFD
:10149800934203D002F58062934203D15A6C42F41E
:1014A80000425A642268136843F001031360002065
:1014B80010BD00BF0000014090F83830012B22D049
:1014C80030B4012280F83820022380F839300468CB
:1014D800636823F070036360046863680D682B43D6
:1014E80063600468A36823F08003A3600468A368AA
:1014F80049680B43A36080F83920002380F838300E
:10150800184630BC7047022070477047704700008B
:101518002DE9F04188B0002400942B4B1A6B42F05F
:1015280001021A631A6B02F001020092009A0194F8
:101538001A6B42F004021A631A6B02F00402019259
:10154800019A02941A6B42F002021A631B6B03F0B1
:1015580002030293029BDFF87C8022464FF48661E7
:101568004046FFF75FF9194F22464FF4604138466D
:10157800FFF758F9164E22464FF4E0613046FFF760
:1015880051F94FF486630393012504950594069455
:1015980003A94046FFF762F84FF4604303930495AC
:1015A8000594069403A93846FFF758F84FF4E0630A
:1015B800039304950594069403A93046FFF74EF863
:1015C80008B0BDE8F08100BF0038024000040240C6
:1015D8000000024000080240FEE7000000B58FB09E
:1015E80034484FF0804303604CF25033436000238B
:1015F80083606422C2600361FFF760FE002835D172
:101608000EA94FF4805341F8103D2A48FFF7B0FC6B
:10161800002830D12748FFF76AFE002830D1002380
:101628000893099308A92348FFF746FF68BB60237E
:1016380001933223029300220392059201A91D48C7
:10164800FFF7A0FE30BB04220DEB02011948FFF79B
:1016580099FE20BB082201A91648FFF793FE18BB84
:10166800144800F009FA0FB05DF804FB4FF49671C6
:101678001148FFF7B1FF4FF499710F48FFF7ACFF1E
:1016880040F237110C48FFF7A7FF4FF49F710A4843
:10169800FFF7A2FF40F247110748FFF79DFF4FF4FD
:1016A800A6710548FFF798FF40F251110248FFF76D
:1016B80093FF00BF00080020F81B000800B595B094
:1016C80000230193244A116C41F080511164126C7B
:1016D80002F080520192019A0293204A116841F463
:1016E80080411160126802F480420292029A02223A
:1016F800089201220B9210220C920E9308A8FFF771
:1017080097F8F0B90F2303930021049105910691EE
:10171800079103A8FFF7ACFAC0B9FFF755FB104BC8
:10172800A3FB00308009FEF76DFF0420FEF780FF61
:10173800002211464FF0FF30FEF724FF15B05DF888
:1017480004FB4FF480710748FFF746FF4FF4877199
:101758000448FFF741FF00BF003802400070004016
:10176800D34D6210F81B000810B5FEF7CDFEFFF749
:10177800A5FFFFF7CDFEFFF731FF844C002120467F
:10178800FFF77EFE04212046FFF77AFE0821204657
:10179800FFF776FE2046FFF7DEFB7D4C01224FF473
:1017A80080612046FFF73EF8012210212046FFF70E
:1017B80039F86BE0774A784880FB0130CB17C3EBE8
:1017C800A0134FF47A7000FB13111160B2F90430C2
:1017D800B3FA83F35B099380704C00224FF4806165
:1017E8002046FFF71FF800224FF400412046FFF77C
:1017F80019F86B4B6748026803EB4202B2F90C1008
:1018080080394FF080425163596803EB4101B1F9C7
:101818000C1080399163996803EB4103B3F90C30DC
:10182800803BD363546A24B2B0F90430002B00F033
:101838008580526B94422CBF002201224FF48061B4
:101848005648FEF7EFFF534BB3F90630002B00F074
:1018580082804FF080439A6B94422CBF0022012271
:101868004FF400714D48FEF7DDFF4A4BB3F90830DD
:10187800002B7DD04FF08043DA6B94422CBF0022BE
:1018880001224FF480714548FEF7CCFF444AB2F973
:10189800003040480168194401605068184450609D
:1018A800946823449360B1F57A7F83DAB0F57A7F40
:1018B80023DAB3F57A7F9CDB374981FB0321DA17FA
:1018C800C2EBA1124FF47A7101FB1233344A9360D0
:1018D800304AB2F90830B3FA83F35B0913812F4C0D
:1018E80000224FF480612046FEF79CFF00224FF44F
:1018F80000412046FEF796FF7BE7274A82FB00322D
:10190800C317C3EBA2134FF47A7202FB1300244BE4
:101918005860204AB2F90630B3FA83F35B09D380E2
:101928001E4C00224FF480612046FEF77BFF002208
:101938004FF400412046FEF775FF5AE74FF0804309
:101948005A6B94422CBF002201224FF400411548E3
:10195800FEF768FF77E74FF080439A6B94422CBFFD
:10196800002201224FF480410E48FEF75BFF7CE71E
:101978004FF08043DA6B94422CBF002201224FF4CF
:1019880000510848FEF74EFF80E700BF000800201E
:1019980000080240F0070020D34D6210000002400A
:1019A800080000200004024010B582B00024009412
:1019B800214B5A6C42F480425A645A6C02F48042B9
:1019C8000092009A01941A6C42F080521A641B6CBF
:1019D80003F080530193019B0320FEF7C1FD2246CB
:1019E80021466FF00B00FEF7CDFD224621466FF031
:1019F8000A00FEF7C7FD224621466FF00900FEF7F0
:101A0800C1FD224621466FF00400FEF7BBFD2246C9
:101A180021466FF00300FEF7B5FD224621466FF020
:101A28000100FEF7AFFD224621464FF0FF30FEF7DA
:101A3800A9FD02B010BD00BF003802400368B3F131
:101A4800804F00D0704700B583B00021019103F5A5
:101A58000E331A6C42F001021A641B6C03F0010386
:101A68000193019B0A461C20FEF78CFD1C20FEF703
:101A7800BDFD03B05DF804FB0368B3F1804F00D0EF
:101A8800704700B587B00723019302230293002310
:101A9800039304930123059301A90348FEF7DEFD90
:101AA80007B05DF804FB00BF000002407047FEE786
:101AB800FEE7FEE7FEE770477047704708B5FEF798
:101AC8003DFDFEF7C6FD08BD08B50248FFF7D9FA87
:101AD80008BD00BF000800200F49D1F8883043F442
:101AE8007003C1F888300D4B1A6842F001021A6081
:101AF800002098601A6822F0847222F480321A60FA
:101B0800074A5A601A6822F480221A60D8604FF097
:101B180000638B60704700BF00ED00E000380240B2
:101B280010300024DFF834D0002103E00C4B5B5860
:101B3800435004310B480C4B42189A42F6D30B4AD7
:101B480002E0002342F8043B094B9A42F9D3FFF71D
:101B5800C3FF00F011F8FFF707FE704700000220EE
:101B6800181C000800000020D4070020D40700201B
:101B78003C080020FEE7000070B50D4E0D4CA41B7C
:101B8800A4100025A54209D10B4E0C4C00F018F802
:101B9800A41BA4100025A54205D170BD56F8253018
:101BA80098470135EEE756F8253098470135F2E7B2
:101BB800101C0008101C0008101C0008141C000849
:101BC800F8B500BFF8BC08BC9E467047F8B500BF22
:081BD800F8BC08BC9E467047F2
:101BE00000000000000000000102030406070809CD
:101BF00000000000010203042E2E2F5372632F6D8C
:081C000061696E2E6300000013
:081C0800F0E5FF7F0100000080
:041C1000AD0100081A
:041C1400890100083A
:101C180001000000100000000A000000A2000000FF
:101C28004D0100008000800080008100810082005A
:101C38008200820083008300840084008400850081
:101C48008500860086008600870087008800880057
:101C58008800890089008A008A008A008B008B002E
:101C68008B008C008C008D008D008D008E008E0006
:101C78008F008F008F0090009000910091009100DC
:101C880092009200930093009300940094009500B2
:101C98009500950096009600970097009700980089
:101CA80098009900990099009A009A009B009B005F
:101CB8009B009C009C009C009D009D009E009E0037
:101CC8009E009F009F00A000A000A000A100A1000E
:101CD800A200A200A200A300A300A300A400A400E5
:101CE800A500A500A500A600A600A700A700A700BC
:101CF800A800A800A800A900A900AA00AA00AA0094
:101D0800AB00AB00AB00AC00AC00AD00AD00AD006B
:101D1800AE00AE00AE00AF00AF00B000B000B00043
:101D2800B100B100B100B200B200B300B300B3001B
:101D3800B400B400B400B500B500B500B600B600F4
:101D4800B700B700B700B800B800B800B900B900CC
:101D5800B900BA00BA00BA00BB00BB00BC00BC00A6
:101D6800BC00BD00BD00BD00BE00BE00BE00BF007F
:101D7800BF00BF00C000C000C000C100C100C1005A
:101D8800C200C200C200C300C300C300C400C40034
:101D9800C400C500C500C600C600C600C700C7000D
:101DA800C700C700C800C800C800C900C900C900EA
:101DB800CA00CA00CA00CB00CB00CB00CC00CC00C4
:101DC800CC00CD00CD00CD00CE00CE00CE00CF009F
:101DD800CF00CF00D000D000D000D000D100D1007B
:101DE800D100D200D200D200D300D300D300D40057
:101DF800D400D400D400D500D500D500D600D60034
:101E0800D600D600D700D700D700D800D800D80011
:101E1800D900D900D900D900DA00DA00DA00DB00ED
:101E2800DB00DB00DB00DC00DC00DC00DC00DD00CC
:101E3800DD00DD00DE00DE00DE00DE00DF00DF00AA
:101E4800DF00DF00E000E000E000E000E100E1008A
:101E5800E100E100E200E200E200E300E300E30069
:101E6800E300E400E400E400E400E400E500E50049
:101E7800E500E500E600E600E600E600E700E7002A
:101E8800E700E700E800E800E800E800E900E9000A
:101E9800E900E900E900EA00EA00EA00EA00EB00EC
:101EA800EB00EB00EB00EB00EC00EC00EC00EC00CE
:101EB800EC00ED00ED00ED00ED00ED00EE00EE00B1
:101EC800EE00EE00EE00EF00EF00EF00EF00EF0095
:101ED800F000F000F000F000F000F100F100F10077
:101EE800F100F100F100F200F200F200F200F2005D
:101EF800F300F300F300F300F300F300F400F40040
:101F0800F400F400F400F400F500F500F500F50025
:101F1800F500F500F500F600F600F600F600F6000C
:101F2800F600F600F700F700F700F700F700F700F3
:101F3800F700F800F800F800F800F800F800F800DA
:101F4800F900F900F900F900F900F900F900F900C1
:101F5800F900FA00FA00FA00FA00FA00FA00FA00AA
:101F6800FA00FA00FB00FB00FB00FB00FB00FB0093
:101F7800FB00FB00FB00FB00FC00FC00FC00FC007D
:101F8800FC00FC00FC00FC00FC00FC00FC00FD0068
:101F9800FD00FD00FD00FD00FD00FD00FD00FD0051
:101FA800FD00FD00FD00FD00FD00FD00FE00FE003F
:101FB800FE00FE00FE00FE00FE00FE00FE00FE0029
:101FC800FE00FE00FE00FE00FE00FE00FE00FE0019
:101FD800FE00FE00FF00FF00FF00FF00FF00FF0003
:101FE800FF00FF00FF00FF00FF00FF00FF00FF00F1
:101FF800FF00FF00FF00FF00FF00FF00FF00FF00E1
:10200800FF00FF00FF00FF00FF00FF00FF00FF00D0
:10201800FF00FF00FF00FF00FF00FF00FF00FF00C0
:10202800FF00FF00FF00FF00FF00FF00FF00FF00B0
:10203800FF00FF00FF00FF00FF00FF00FF00FF00A0
:10204800FF00FF00FF00FE00FE00FE00FE00FE0095
:10205800FE00FE00FE00FE00FE00FE00FE00FE0088
:10206800FE00FE00FE00FE00FE00FE00FE00FD0079
:10207800FD00FD00FD00FD00FD00FD00FD00FD0070
:10208800FD00FD00FD00FD00FD00FD00FC00FC0062
:10209800FC00FC00FC00FC00FC00FC00FC00FC0058
:1020A800FC00FB00FB00FB00FB00FB00FB00FB004F
:1020B800FB00FB00FB00FA00FA00FA00FA00FA0045
:1020C800FA00FA00FA00FA00F900F900F900F9003C
:1020D800F900F900F900F900F900F800F800F80033
:1020E800F800F800F800F800F700F700F700F7002C
:1020F800F700F700F700F600F600F600F600F60025
:10210800F600F600F500F500F500F500F500F5001D
:10211800F500F400F400F400F400F400F400F30017
:10212800F300F300F300F300F300F200F200F20012
:10213800F200F200F100F100F100F100F100F1000D
:10214800F000F000F000F000F000EF00EF00EF000A
:10215800EF00EF00EE00EE00EE00EE00EE00ED0006
:10216800ED00ED00ED00ED00EC00EC00EC00EC0003
:10217800EC00EB00EB00EB00EB00EB00EA00EA0000
:10218800EA00EA00E900E900E900E900E900E800FE
:10219800E800E800E800E700E700E700E700E600FD
:1021A800E600E600E600E500E500E500E500E400FD
:1021B800E400E400E400E400E300E300E300E300FB
:1021C800E200E200E200E100E100E100E100E000FD
:1021D800E000E000E000DF00DF00DF00DF00DE00FD
:1021E800DE00DE00DE00DD00DD00DD00DC00DC00FE
:1021F800DC00DC00DB00DB00DB00DB00DA00DA00FF
:10220800DA00D900D900D900D900D800D800D80000
:10221800D700D700D700D600D600D600D600D50004
:10222800D500D500D400D400D400D400D300D30006
:10223800D300D200D200D200D100D100D100D0000A
:10224800D000D000D000CF00CF00CF00CE00CE000D
:10225800CE00CD00CD00CD00CC00CC00CC00CB0012
:10226800CB00CB00CA00CA00CA00C900C900C90017
:10227800C800C800C800C700C700C700C700C6001C
:10228800C600C600C500C500C400C400C400C30021
:10229800C300C300C200C200C200C100C100C10027
:1022A800C000C000C000BF00BF00BF00BE00BE002D
:1022B800BE00BD00BD00BD00BC00BC00BC00BB0032
:1022C800BB00BA00BA00BA00B900B900B900B8003A
:1022D800B800B800B700B700B700B600B600B50040
:1022E800B500B500B400B400B400B300B300B30047
:1022F800B200B200B100B100B100B000B000B0004F
:10230800AF00AF00AE00AE00AE00AD00AD00AD0056
:10231800AC00AC00AB00AB00AB00AA00AA00AA005E
:10232800A900A900A800A800A800A700A700A70066
:10233800A600A600A500A500A500A400A400A3006F
:10234800A300A300A200A200A200A100A100A00077
:10235800A000A0009F009F009E009E009E009D0080
:102368009D009C009C009C009B009B009B009A0089
:102378009A00990099009900980098009700970092
:10238800970096009600950095009500940094009B
:1023980093009300930092009200910091009100A5
:1023A800900090008F008F008F008E008E008D00AF
:1023B8008D008D008C008C008B008B008B008A00B8
:1023C8008A008A00890089008800880088008700C0
:1023D80087008600860086008500850084008400CA
:0423E8000024F400D9
:0400000508001B2DA7
:00000001FF
