:020000040800F2
:1000000000000220C11A00084D1A00084F1A00080B
:10001000511A0008531A0008551A00080000000081
:10002000000000000000000000000000571A000857
:10003000591A0008000000005B1A00085D1A000849
:10004000111B0008111B0008111B0008111B0008E0
:10005000111B0008111B0008111B0008111B0008D0
:10006000111B0008111B0008111B0008111B0008C0
:10007000111B0008111B0008111B0008111B0008B0
:10008000111B0008111B0008111B0008111B0008A0
:10009000111B0008111B0008111B0008111B000890
:1000A000111B0008111B0008111B0008111B000880
:1000B000651A0008111B0008111B0008111B00081D
:1000C000111B0008111B0008111B0008111B000860
:1000D000111B0008111B0008111B0008111B000850
:1000E000111B0008111B0008111B0008111B000840
:1000F000111B0008111B0008111B0008111B000830
:10010000111B0008111B0008111B0008111B00081F
:10011000111B0008111B0008111B0008111B00080F
:10012000111B0008111B0008111B0008111B0008FF
:10013000111B00080000000000000000111B000857
:10014000111B0008111B0008111B0008111B0008DF
:10015000111B0008111B0008111B0008111B0008CF
:10016000111B0008111B0008111B0008111B0008BF
:10017000111B0008111B0008000000000000000017
:08018000111B0008111B00080F
:1001880010B5054C237833B9044B13B10448AFF3C9
:1001980000800123237010BD94100020000000008F
:1001A8006C1B000808B5034B1BB103490348AFF3A8
:1001B800008008BD00000000981000206C1B00089B
:1001C80053B94AB9002908BF00281CBF4FF0FF31B6
:1001D8004FF0FF3000F072B9ADF1080C6DE904CEB4
:1001E80000F006F8DDF804E0DDE9022304B070470A
:1001F8002DE9F047089E04468846002B4BD18A42D9
:10020800154667D9B2FA82F24AB1C2F1200701FA5B
:1002180002F320FA07F7954047EA030894404FEAAB
:10022800154E230CB8FBFEF71FFA85FC0EFB17884A
:1002380043EA084307FB0CF1994209D9EB1807F187
:10024800FF3080F01B81994240F21881023F2B4415
:100258005B1AA4B2B3FBFEF00EFB103344EA03446E
:1002680000FB0CFCA44509D92C1900F1FF3380F0E0
:100278000781A44540F2048102382C4440EA074033
:10028800A4EB0C0400271EB1D4400023C6E90043A8
:100298003946BDE8F0878B4209D9002E00F0EB8083
:1002A8000027C6E9000138463946BDE8F087B3FAA9
:1002B80083F7002F47D18B4202D3824200F2FA80A3
:1002C800841A61EB030301209846002EE0D0C6E9AA
:1002D8000048DDE702B9FFDEB2FA82F2002A40F0F8
:1002E8008F80491B4FEA154E1FFA85F80127B1FB8D
:1002F800FEFC230C0EFB1C1143EA014308FB0CF126
:10030800994207D9EB180CF1FF3002D2994200F25A
:10031800CD808446591AA3B2B1FBFEF00EFB10142F
:1003280043EA044408FB00F8A04507D92C1900F15A
:10033800FF3302D2A04500F2B6801846A4EB0804A9
:1003480040EA0C409FE7C7F1200CBB4022FA0CFEA4
:100358004EEA030E01FA07F420FA0CF521FA0CF321
:100368004FEA1E482543B3FBF8F92C0C08FB193358
:100378001FFA8EFA44EA034309FB0AF49C4202FA84
:1003880007F200FA07F10BD91EEB030309F1FF305E
:1003980080F087809C4240F28480A9F1020973446E
:1003A8001B1BADB2B3FBF8F008FB103345EA03445E
:1003B80000FB0AFAA24508D91EEB040400F1FF333A
:1003C8006BD2A24569D90238744440EA0940A0FBBF
:1003D8000289A4EB0A044C45C2464B4654D351D07B
:1003E800002E69D0B1EB0A0564EB030404FA0CFC97
:1003F800FD40FC404CEA0505C6E90054002747E7E4
:10040800C2F1200320FA03F7954001FA02F021FA1D
:1004180003F34FEA154E3843010CB3FBFEF71FFAFE
:1004280085F80EFB173341EA034107FB08F38B42BB
:1004380004FA02F407D9691807F1FF3C2FD28B425E
:100448002DD9023F2944CB1A81B2B3FBFEF00EFB33
:10045800103341EA034100FB08F38B4207D96918BE
:1004680000F1FF3C17D28B4215D902382944C91A2A
:1004780040EA07473BE73746304609E70746E7E6DD
:100488001846FBE64145ABD2B8EB020A69EB0E020F
:1004980001381346A4E76046E9E7184695E767463A
:1004A800D1E781467CE702382C4447E7ACF1020CDF
:1004B8002B442FE7384608E73746E9E6704700BF80
:1004C80010B504460E4B18784FF47A73B3FBF0F36B
:1004D8000C4A1068B0FBF3F000F096F868B90F2CDE
:1004E80001D901200AE0002221464FF0FF3000F038
:1004F80049F8034B5C60002000E0012010BD00BFFC
:10050800000000209010002008B50B4B1A6842F438
:1005180000721A601A6842F480621A601A6842F41B
:1005280080721A60032000F01BF80020FFF7C8FF54
:1005380001F010FA002008BD003C0240034A11688F
:10054800034B1B780B441360704700BFCC1000208E
:1005580000000020014B1868704700BFCC10002035
:10056800074AD36823F4E0631B041B0C000200F461
:10057800E060184340F0BF6040F40030D06070473E
:1005880000ED00E030B4174BDB68C3F30223C3F17E
:100598000704042C28BF04241D1D062D18D9033B6D
:1005A8004FF0FF3505FA04F421EA0401994005FAF1
:1005B80003F322EA0303194300280BDB0901C9B23C
:1005C80000F1604000F5614080F8001330BC7047CE
:1005D8000023E5E700F00F000901C9B2024B1954E6
:1005E800F4E700BF00ED00E014ED00E0002807DBB1
:1005F80000F01F02400901239340024A42F82030CC
:10060800704700BF00E100E00138B0F1807F0AD2F6
:10061800064B5860064AF02182F8231000209860A3
:1006280007221A6070470120704700BF10E000E001
:1006380000ED00E000230F2B00F2D780F0B583B067
:1006480039E0072200E00022AA403A430234674D0D
:1006580045F82420664A1468F24302EA04054F6804
:1006680017F4803F01D046EA0405614C25606468B0
:1006780002EA04054F6817F4003F01D046EA040572
:100688005B4C6560A46802EA04054F6817F4801F94
:1006980001D046EA0405564CA560E46822404D683E
:1006A80015F4001F01D046EA0402514CE260013300
:1006B8000F2B00F2988001229A400C6804EA020687
:1006C800B242F4D14C68651E012D03D9112C01D01A
:1006D800122C12D185685F000324BC4025EA04056A
:1006E800CC68BC402C438460456825EA02054C6808
:1006F800C4F300129A402A434260C4685F00032290
:10070800BA40D24314408D68BD402543C5604C684B
:10071800022C01D0122C13D1DD08083550F825E041
:1007280003F007044FEA840C0F2404FA0CF42EEAB1
:10073800040E0C6904FA0CF444EA0E0440F825404F
:10074800046822404C6804F00304BC402243026061
:100758004A6812F0805FAAD000220192254A546CA0
:1007680044F480445464526C02F480420192019A29
:100778009C08A51C1D4A52F8257003F00302950039
:100788000F22AA4027EA02071B4A90423FF45BAFB8
:1007980002F5806290421AD002F58062904218D029
:1007A80002F58062904216D002F58062904214D021
:1007B80002F58062904212D002F58062904210D019
:1007C80002F5806290423FF43CAF08223CE70122E8
:1007D8003AE7022238E7032236E7042234E7052203
:1007E80032E7062230E703B0F0BD70470038014019
:1007F800003C0140003802400000024012B90904E0
:100808008161704781617047002800F0E48170B50C
:1008180082B00446036813F0010F3BD0A74B9B68D6
:1008280003F00C03042B2CD0A44B9B6803F00C039F
:10083800082B21D06368B3F5803F4FD0B3F5A02FC4
:1008480052D09E4B1A6822F480321A601A6822F439
:1008580080221A606368002B50D0FFF77BFE0546A4
:10086800964B1B6813F4003F14D1FFF773FE401B2F
:100878006428F5D90320B3E1904B5B6813F4800F2B
:10088800D8D08E4B1B6813F4003F03D06368002B4D
:1008980000F0A381236813F0020F55D0874B9B68A3
:1008A80013F00C0F3ED0854B9B6803F00C03082B0C
:1008B80033D0E368002B68D0814B01221A60FFF720
:1008C80049FE05467D4B1B6813F0020F54D1FFF714
:1008D80041FE401B0228F5D9032081E1774A1368BD
:1008E80043F480331360B5E7744B1A6842F48022EE
:1008F8001A601A6842F480321A60ABE7FFF72AFEE2
:1009080005466E4B1B6813F4003FC3D0FFF722FE69
:10091800401B6428F5D9032062E1684B5B6813F437
:10092800800FC6D1654B1B6813F0020F04D0E36833
:10093800012B01D0012053E1604A136823F0F8032A
:10094800216943EAC1031360236813F0080F40D0FC
:10095800636963B35B4B01221A60FFF7FBFD054631
:10096800564B5B6F13F0020F33D1FFF7F3FD401BBB
:100978000228F5D9032033E1504A136823F0F8031D
:10098800216943EAC1031360DEE74D4B00221A6078
:10099800FFF7E0FD0546494B1B6813F0020FD3D063
:1009A800FFF7D8FD401B0228F5D9032018E1454B75
:1009B80000221A60FFF7CEFD0546404B5B6F13F02F
:1009C800020F06D0FFF7C6FD401B0228F5D9032009
:1009D80006E1236813F0040F79D0384B1B6C13F031
:1009E800805F33D100230193344B1A6C42F080525C
:1009F8001A641B6C03F080530193019B0125324B51
:100A08001B6813F4807F23D0A368012B34D0052BF7
:100A180038D02A4B1A6F22F001021A671A6F22F097
:100A280004021A67A368002B36D0FFF793FD064629
:100A3800224B1B6F13F0020F48D1FFF78BFD801B71
:100A480041F288339842F3D90320C9E00025D6E75C
:100A58001D4A136843F480731360FFF77BFD064655
:100A6800194B1B6813F4807FCED1FFF773FD801BF1
:100A78000228F5D90320B3E0104A136F43F00103AD
:100A88001367CFE70D4B1A6F42F004021A671A6F0B
:100A980042F001021A67C5E7FFF75CFD0646074BFF
:100AA8001B6F13F0020F11D0FFF754FD801B41F2AA
:100AB80088339842F3D9032092E000BF00380240FF
:100AC80000004742800E474200700040EDB9A3691C
:100AD800002B00F08480454A926802F00C02082A34
:100AE80051D0022B17D0424B00221A60FFF732FD7B
:100AF80004463E4B1B6813F0007F42D0FFF72AFDE7
:100B0800001B0228F5D903206AE0384A136C23F049
:100B180080531364DBE7364B00221A60FFF71AFD97
:100B28000546324B1B6813F0007F06D0FFF712FD15
:100B3800401B0228F5D9032052E0E369226A1343D7
:100B4800626A43EA8213A26A5208013A43EA0243FC
:100B5800E26A43EA0263254A5360254B01221A6080
:100B6800FFF7F8FC0446214B1B6813F0007F06D101
:100B7800FFF7F0FC001B0228F5D9032030E0002025
:100B88002EE000202CE0012B2CD0184B5B6803F4DE
:100B98008001E269914201D0012021E003F03F0287
:100BA800216A8A4201D001201AE0616A47F6C072C0
:100BB8001A408A4201D0012012E003F44032A16AAF
:100BC8008A4201D001200BE003F07063E26A93428D
:100BD8000AD0012004E001207047012000E0002035
:100BE80002B070BD0120FBE70020F9E700380240A1
:100BF80060004742264B9B6803F00C03042B44D04B
:100C0800082B01D0234870472DE9F04B204B5A6838
:100C180002F03F025B6813F4800F13D01C4B596835
:100C2800C1F3881100231C48A1FB0001FFF7C8FA93
:100C3800174B5B68C3F3014301335B00B0FBF3F070
:100C4800BDE8F08B124B5B68C3F388131E46002780
:100C58005C010025E41A65EB0705A90141EA9461E6
:100C6800A001001B61EB0501CB0043EA5073C400EF
:100C7800A01943EB07018B0243EA905384022046F4
:100C880019460023FFF79CFAD2E70348704700BFD4
:100C9800003802400024F40040787D01002800F06C
:100CA8009E8070B50446504B1B6803F00F038B42BF
:100CB80009D2CBB24C4A1370136803F00F038B426E
:100CC80001D0012070BD236813F0020F17D013F074
:100CD800040F04D0454A936843F4E05393602368B3
:100CE80013F0080F04D0414A936843F460439360BB
:100CF8003E4A936823F0F003A068034393600D46CF
:100D0800236813F0010F32D06368012B21D09A1E9B
:100D1800012A25D9354A126812F0020F61D03349E9
:100D28008A6822F0030213438B60FFF713FC064620
:100D38002E4B9B6803F00C036268B3EB820F16D04E
:100D4800FFF708FC801B41F288339842F0D9032052
:100D5800B8E7264A126812F4003FE0D10120B1E753
:100D6800224A126812F0007FD9D10120AAE71E4B4F
:100D78001B6803F00F03AB4209D9EAB21A4B1A7089
:100D88001B6803F00F03AB4201D001209AE72368E8
:100D980013F0040F06D0154A936823F4E053E16872
:100DA8000B439360236813F0080F07D00F4A93682A
:100DB80023F46043216943EAC1039360FFF71AFFF4
:100DC8000A4B9B68C3F30313094AD35CD840094B09
:100DD8001860094B1868FFF773FB002072E70120C1
:100DE800704701206EE700BF003C02400038024017
:100DF800841B0008901000200400002030B4036A0F
:100E080023F001030362056A4268846924F07304CD
:100E18000B681C4325F002058B682B43104DA84234
:100E280003D005F58065A84205D123F00803CD68F5
:100E38002B4323F004030A4DA84203D005F580652F
:100E4800A84205D122F440724D6915438A692A43A4
:100E5800426084614A684263036230BC704700BFE5
:100E68000000014030B4036A23F480730362036A0C
:100E78004268C46924F073040D682C4323F400739A
:100E88008D6843EA0523124DA84203D005F5806515
:100E9800A84206D123F40063CD6843EA052323F46E
:100EA80080630B4DA84203D005F58065A84207D1A1
:100EB80022F440524D6942EA05128D6942EA051250
:100EC8004260C4614A68C263036230BC704700BFB5
:100ED8000000014030B4036A23F480530362036ABC
:100EE8004468C26922F4E6420D6842EA052223F406
:100EF80000538D6843EA0533094DA84203D005F530
:100F08008065A84204D124F480444D6944EA8514DC
:100F18004460C2614A680264036230BC704700BF23
:100F28000000014010B4036A046A24F0010404625A
:100F3800846924F0F00444EA021223F00A030B4304
:100F4800826103625DF8044B704710B4036A23F0B2
:100F5800100303628469036A24F4704444EA023289
:100F680023F0A00343EA0113826103625DF8044B96
:100F78007047836823F07003194341F007018160CB
:100F880070470268D36843F00103D360026893682E
:100F980003F00703062B03D0136843F00103136023
:100FA800002070477047704770477047704710B50A
:100FB800044603681A6912F0020F11D0DA6812F0B9
:100FC800020F0DD06FF002021A6101230377036844
:100FD8009B6913F0030F70D0FFF7E6FF0023237718
:100FE80023681A6912F0040F12D0DA6812F0040F9D
:100FF8000ED06FF004021A610223237723689B69DD
:1010080013F4407F5FD02046FFF7CEFF00232377FD
:1010180023681A6912F0080F12D0DA6812F0080F64
:101028000ED06FF008021A61042323772368DB6966
:1010380013F0030F4ED02046FFF7B6FF00232377A7
:1010480023681A6912F0100F12D0DA6812F0100F24
:101058000ED06FF010021A61082323772368DB692A
:1010680013F4407F3DD02046FFF79EFF00232377EF
:1010780023681A6912F0010F03D0DA6812F0010F21
:1010880036D123681A6912F0800F03D0DA6812F09B
:10109800800F34D123681A6912F0400F03D0DA6840
:1010A80012F0400F32D123681A6912F0200F03D0D2
:1010B800DA6812F0200F30D110BDFFF774FF204618
:1010C800FFF773FF8AE72046FFF76DFF2046FFF71B
:1010D8006CFF9BE72046FFF766FF2046FFF765FF9A
:1010E800ACE72046FFF75FFF2046FFF75EFFBDE74E
:1010F8006FF001021A61204600F0ACFAC1E76FF008
:1011080080021A61204600F03AFAC3E76FF0400205
:101118001A612046FFF74AFFC5E76FF020021A61FF
:10112800204600F02BFAC7E70368304A904212D0F5
:10113800B0F1804F0FD0A2F57C4290420BD002F55F
:101148008062904207D002F58062904203D002F597
:101158007842904203D123F070034A681343234A2C
:1011680090422AD0B0F1804F27D0A2F57C4290421D
:1011780023D002F5806290421FD002F5806290422F
:101188001BD002F57842904217D002F57052904277
:1011980013D002F5806290420FD002F5806290422F
:1011A8000BD0A2F59832904207D002F580629042A7
:1011B80003D002F58062904203D123F44073CA68D9
:1011C800134323F080034A69134303608B68C362A7
:1011D8000B688362054B984203D003F580639842FD
:1011E80001D10B690363012343617047000001408B
:1011F800A8B110B5044690F83D305BB1022384F8DD
:101208003D30211D2068FFF78FFF012384F83D3012
:10121800002010BD80F83C3000F0B8FBEEE701205C
:101228007047A8B110B5044690F83D305BB1022371
:1012380084F83D30211D2068FFF776FF012384F8EC
:101248003D30002010BD80F83C30FFF7ABFEEEE7E4
:101258000120704730B4036A23F010030362036A65
:101268004468826922F4E6420D6842EA052223F0C6
:1012780020038D6843EA0513114DA84203D005F5F4
:101288008065A84206D123F08003CD6843EA0513A0
:1012980023F040030A4DA84203D005F58065A84213
:1012A80007D124F440644D6944EA85048D6944EA11
:1012B8008504446082614A688263036230BC704777
:1012C8000000014038B590F83C30012B66D00D463F
:1012D8000446012380F83C30022380F83D300C2A74
:1012E8001AD8DFE802F00719191920191919341941
:1012F800191947000068FFF781FD2268936943F0D8
:10130800080393612268936923F0040393612268B8
:10131800936929690B439361012384F83D300020C8
:1013280084F83C0038BD0068FFF794FF2268936991
:1013380043F4006393612268936923F480639361A3
:1013480022689369296943EA01239361E4E7006805
:10135800FFF788FD2268D36943F00803D361226848
:10136800D36923F00403D3612268D36929690B4345
:10137800D361D1E70068FFF7ADFD2268D36943F474
:101388000063D3612268D36923F48063D361226840
:10139800D369296943EA0123D361BDE70220C1E784
:1013A80010B4846824F47F4442EA03230B432343A4
:1013B80083605DF8044B704790F83C30012B66D091
:1013C80010B50446012380F83C30022380F83D30F4
:1013D8000268936823F47F4323F0770393600B68D4
:1013E800402B4AD013D9602B3DD01ED9702B28D062
:1013F800B3F5005F30D1CB684A6889680068FFF7A9
:10140800CFFF2268936843F48043936024E0102B55
:1014180006D004D9202B03D0302B01D01CE0DBB937
:1014280019462068FFF7A5FD16E0502B14D1CA68AD
:1014380049680068FFF776FD50212068FFF799FD9D
:101448000AE0CB684A6889680068FFF7A9FF226844
:10145800936843F077039360012384F83D300020BC
:1014680084F83C0010BDCA6849680068FFF76DFD44
:1014780060212068FFF77DFDEEE7CA6849680068CB
:10148800FFF750FD40212068FFF773FDE4E70220D5
:10149800704710B401F01F01012303FA01F4036A35
:1014A80023EA04030362036A8A40134303625DF874
:1014B800044B704710B5044601220068FFF7E9FFA6
:1014C80023680B4A934203D002F58062934203D10A
:1014D8005A6C42F400425A642268936803F0070386
:1014E800062B03D0136843F001031360002010BDDE
:1014F8000000014090F83C30012B3BD030B4012370
:1015080080F83C30022380F83D3003685C689D68B1
:1015180024F070040A6822435A600368164A93420A
:101528001AD0B3F1804F17D0A2F57C42934213D062
:1015380002F5806293420FD002F5806293420BD08D
:1015480002F57842934207D002F57052934203D0D5
:10155800A2F59432934204D125F080054A681543D8
:101568009D60012380F83D30002380F83C30184608
:1015780030BC704702207047000001407047704738
:10158800F0B589B000240394049405940694079454
:101598000094204B1A6B42F001021A631A6B02F096
:1015A80001020092009A01941A6B42F004021A6335
:1015B8001A6B02F004020192019A02941A6B42F02B
:1015C80002021A631B6B03F002030293029B124F81
:1015D800224670213846FFF711F9104D22464FF484
:1015E80070412846FFF70AF97023039301260496F1
:1015F8000594069403A93846FFF71CF84FF4704386
:10160800039304960594069403A92846FFF712F855
:1016180009B0F0BD00380240000802400004024052
:101628000A4B00229A600A4B1B68012B00D07047B6
:10163800064BB3F90430064A52689342F7DA034A74
:101648000021D16001339380F1E700BFB010002082
:101658000800002008B5064B9B68064A926893422A
:1016680003DA0133024A936008BDFFF7D9FFFBE7AD
:10167800B010002008000020FEE7000000B58FB081
:1016880000230A930B930C930D93089309930193EA
:1016980002930393049305930693079327484FF007
:1016A800804202602022426083608022C26003611F
:1016B8008361FFF79DFD002832D10EA94FF48053B6
:1016C80041F8103D1D48FFF777FE58BB1B48FFF750
:1016D800A8FD48BB00230893099308A91748FFF7FA
:1016E80009FF18BB6023019300220292039205921E
:1016F80001A91248FFF7E6FDD0B904220DEB02015B
:101708000E48FFF7DFFDA8B9082201A90B48FFF72B
:10171800D9FD88B9094800F057F90FB05DF804FB06
:10172800FFF7AAFFFFF7A8FFFFF7A6FFFFF7A4FF41
:10173800FFF7A2FFFFF7A0FFFFF79EFFD4100020DE
:1017480000B595B03022002108A800F003FA002364
:10175800039304930593069307930193184A116C16
:1017680041F080511164126C02F080520192019A8A
:101778000293144A116841F480411160126802F41E
:1017880080420292029A0222089201220B921022AF
:101798000C920E9308A8FFF737F868B90F23039344
:1017A8000021049105910691079103A8FFF776FAA5
:1017B80020B915B05DF804FBFFF75EFFFFF75CFF8B
:1017C8000038024000700040F8B5FEF79DFEFFF7B4
:1017D800B7FFFFF7D5FEFFF751FF584C0021204611
:1017E800FFF768FE04212046FFF764FE0821204623
:1017F800FFF760FE2046FFF7C4FB514C0122402151
:101808002046FEF7FBFF01224FF480514D48FEF7BA
:10181800F5FF012210212046FEF7F0FF55E00122D6
:1018280020214748FEF7EAFF5BE0884276DB90FB21
:10183800F1F301FB1300444BD860444AB2F9163067
:10184800B3FA83F35B09D3824FF080435B6A1BB220
:101858003F493E4E326931F91220803A9A42D4BF4C
:10186800002201223848C46831F91450803DAB4247
:10187800ACBF00250125006931F91040803CA34226
:10188800ACBF00240124B6F914302E4F934214BF84
:10189800002201224FF400413846FEF7AFFFB6F9A7
:1018A8001620AA4214BF002201224FF48041384674
:1018B800FEF7A4FFB6F91820A24214BF00220122A5
:1018C8004FF400513846FEF799FF204BB3F9042036
:1018D8001D4B5B689A42A2D0002220211848FEF7CF
:1018E8008DFF1A49B1F904300A691A440A61164988
:1018F800C8681844C8600C6923440B6149698A4266
:1019080093DB124C92FBF1F001FB10222261B4F937
:101918001430B3FA83F35B09A38295E78B4293DB18
:1019280093FBF1F001FB1033074A1361074AB2F940
:101938001830B3FA83F35B09138385E7D4100020CA
:10194800000802400004024008000020B0100020F7
:101958002000002082B0002100910B4B5A6C42F409
:1019680080425A645A6C02F480420092009A0191B3
:101978001A6C42F080521A641B6C03F08053019376
:10198800019B02B0704700BF003802400368B3F102
:10199800804F00D0704700B583B00021019103F556
:1019A8000E331A6C42F001021A641B6C03F0010337
:1019B8000193019B0A461C20FEF7E4FD1C20FEF75C
:1019C80015FE03B05DF804FB70B588B000230393DF
:1019D80004930593069307930368B3F1804F01D0EE
:1019E80008B070BD0024019403F50E331A6B42F061
:1019F80001021A631A6B02F001020192019A029421
:101A08001A6B42F002021A631B6B03F00203029383
:101A1800029B24230393022604960125079503A914
:101A28000648FEF707FE08230393049605940694D8
:101A3800079503A90248FEF7FDFDD1E70000024023
:101A4800000402407047FEE7FEE7FEE7FEE7704746
:101A58007047704708B5FEF771FD08BD08B5024824
:101A6800FFF7A5FA08BD00BFD41000200F49D1F830
:101A7800883043F47003C1F888300D4B1A6842F07F
:101A880001021A60002098601A6822F0847222F419
:101A980080321A60074A5A601A6822F480221A6053
:101AA800D8604FF000638B60704700BF00ED00E026
:101AB8000038024010300024DFF834D0002103E061
:101AC8000C4B5B58435004310B480C4B42189A425C
:101AD800F6D30B4A02E0002342F8043B094B9A4232
:101AE800F9D3FFF7C3FF00F011F8FFF76DFE704759
:101AF80000000220AC1B0008000000209410002009
:101B08009410002014110020FEE7000070B50D4E5F
:101B18000D4CA41BA4100025A54209D10B4E0C4C5A
:101B280000F020F8A41BA4100025A54205D170BD23
:101B380056F8253098470135EEE756F8253098478E
:101B48000135F2E7A41B0008A41B0008A41B000829
:101B5800A81B000802440346934200D1704703F8CB
:101B6800011BF9E7F8B500BFF8BC08BC9E467047F2
:0C1B7800F8B500BFF8BC08BC9E467047E2
:101B84000000000000000000010203040607080929
:081B940000000000010203043F
:081B9C005CE6FF7F0100000080
:041BA400AD01000887
:041BA80089010008A7
:101BAC000100000010000000010000001100000006
:101BBC008813000078050000F00A000034080000CB
:101BCC008000800080008000800080008100810007
:101BDC0081008100810082008200820082008200EC
:101BEC0083008300830083008300840084008400CE
:101BFC0084008400840085008500850085008500B4
:101C0C008600860086008600860087008700870095
:101C1C00870087008800880088008800880088007A
:101C2C00890089008900890089008A008A008A005D
:101C3C008A008A008B008B008B008B008B008B0042
:101C4C008C008C008C008C008C008D008D008D0025
:101C5C008D008D008E008E008E008E008E008F0009
:101C6C008F008F008F008F008F00900090009000ED
:101C7C0090009000910091009100910091009200D1
:101C8C0092009200920092009300930093009300B4
:101C9C009300930094009400940094009400950099
:101CAC00950095009500950096009600960096007C
:101CBC009600960097009700970097009700980061
:101CCC009800980098009800990099009900990044
:101CDC00990099009A009A009A009A009A009B0029
:101CEC009B009B009B009B009B009C009C009C000D
:101CFC009C009C009D009D009D009D009D009E00F1
:101D0C009E009E009E009E009E009F009F009F00D4
:101D1C009F009F00A000A000A000A000A000A000B9
:101D2C00A100A100A100A100A100A200A200A2009C
:101D3C00A200A200A300A300A300A300A300A30081
:101D4C00A400A400A400A400A400A500A500A50064
:101D5C00A500A500A500A600A600A600A600A6004A
:101D6C00A700A700A700A700A700A700A800A8002D
:101D7C00A800A800A800A900A900A900A900A90012
:101D8C00A900AA00AA00AA00AA00AA00AB00AB00F6
:101D9C00AB00AB00AB00AB00AC00AC00AC00AC00DB
:101DAC00AC00AC00AD00AD00AD00AD00AD00AE00C0
:101DBC00AE00AE00AE00AE00AE00AF00AF00AF00A4
:101DCC00AF00AF00AF00B000B000B000B000B0008A
:101DDC00B100B100B100B100B100B100B200B2006D
:101DEC00B200B200B200B200B300B300B300B30053
:101DFC00B300B400B400B400B400B400B400B50037
:101E0C00B500B500B500B500B500B600B600B6001B
:101E1C00B600B600B600B700B700B700B700B70001
:101E2C00B800B800B800B800B800B800B900B900E4
:101E3C00B900B900B900B900BA00BA00BA00BA00CA
:101E4C00BA00BA00BB00BB00BB00BB00BB00BB00B0
:101E5C00BC00BC00BC00BC00BC00BC00BD00BD0094
:101E6C00BD00BD00BD00BD00BE00BE00BE00BE007A
:101E7C00BE00BE00BF00BF00BF00BF00BF00BF0060
:101E8C00C000C000C000C000C000C000C100C10044
:101E9C00C100C100C100C100C200C200C200C2002A
:101EAC00C200C200C300C300C300C300C300C30010
:101EBC00C300C400C400C400C400C400C400C500F6
:101ECC00C500C500C500C500C500C600C600C600DB
:101EDC00C600C600C600C700C700C700C700C700C1
:101EEC00C700C700C800C800C800C800C800C800A8
:101EFC00C900C900C900C900C900C900CA00CA008C
:101F0C00CA00CA00CA00CA00CA00CB00CB00CB0072
:101F1C00CB00CB00CB00CC00CC00CC00CC00CC0058
:101F2C00CC00CC00CD00CD00CD00CD00CD00CD003F
:101F3C00CD00CE00CE00CE00CE00CE00CE00CF0025
:101F4C00CF00CF00CF00CF00CF00CF00D000D0000B
:101F5C00D000D000D000D000D000D100D100D100F2
:101F6C00D100D100D100D200D200D200D200D200D8
:101F7C00D200D200D300D300D300D300D300D300BF
:101F8C00D300D400D400D400D400D400D400D400A6
:101F9C00D500D500D500D500D500D500D500D6008C
:101FAC00D600D600D600D600D600D600D700D70073
:101FBC00D700D700D700D700D700D700D800D8005B
:101FCC00D800D800D800D800D800D900D900D90042
:101FDC00D900D900D900D900DA00DA00DA00DA0029
:101FEC00DA00DA00DA00DA00DB00DB00DB00DB0011
:101FFC00DB00DB00DB00DC00DC00DC00DC00DC00F8
:10200C00DC00DC00DC00DD00DD00DD00DD00DD00DF
:10201C00DD00DD00DD00DE00DE00DE00DE00DE00C7
:10202C00DE00DE00DF00DF00DF00DF00DF00DF00AE
:10203C00DF00DF00E000E000E000E000E000E00096
:10204C00E000E000E100E100E100E100E100E1007E
:10205C00E100E100E100E200E200E200E200E20067
:10206C00E200E200E200E300E300E300E300E3004F
:10207C00E300E300E300E400E400E400E400E40037
:10208C00E400E400E400E400E500E500E500E50020
:10209C00E500E500E500E500E600E600E600E60008
:1020AC00E600E600E600E600E600E700E700E700F1
:1020BC00E700E700E700E700E700E700E800E800DA
:1020CC00E800E800E800E800E800E800E800E900C3
:1020DC00E900E900E900E900E900E900E900E900AC
:1020EC00E900EA00EA00EA00EA00EA00EA00EA0095
:1020FC00EA00EA00EB00EB00EB00EB00EB00EB007E
:10210C00EB00EB00EB00EB00EC00EC00EC00EC0067
:10211C00EC00EC00EC00EC00EC00EC00ED00ED0051
:10212C00ED00ED00ED00ED00ED00ED00ED00ED003B
:10213C00EE00EE00EE00EE00EE00EE00EE00EE0023
:10214C00EE00EE00EE00EF00EF00EF00EF00EF000E
:10215C00EF00EF00EF00EF00EF00F000F000F000F8
:10216C00F000F000F000F000F000F000F000F000E3
:10217C00F000F100F100F100F100F100F100F100CC
:10218C00F100F100F100F100F200F200F200F200B7
:10219C00F200F200F200F200F200F200F200F200A3
:1021AC00F300F300F300F300F300F300F300F3008B
:1021BC00F300F300F300F300F400F400F400F40077
:1021CC00F400F400F400F400F400F400F400F40063
:1021DC00F400F500F500F500F500F500F500F5004C
:1021EC00F500F500F500F500F500F500F500F6003A
:1021FC00F600F600F600F600F600F600F600F60023
:10220C00F600F600F600F600F600F700F700F7000F
:10221C00F700F700F700F700F700F700F700F700FA
:10222C00F700F700F700F700F800F800F800F800E6
:10223C00F800F800F800F800F800F800F800F800D2
:10224C00F800F800F800F800F900F900F900F900BE
:10225C00F900F900F900F900F900F900F900F900AA
:10226C00F900F900F900F900F900FA00FA00FA0097
:10227C00FA00FA00FA00FA00FA00FA00FA00FA0082
:10228C00FA00FA00FA00FA00FA00FA00FA00FA0072
:10229C00FB00FB00FB00FB00FB00FB00FB00FB005A
:1022AC00FB00FB00FB00FB00FB00FB00FB00FB004A
:1022BC00FB00FB00FB00FB00FB00FB00FC00FC0038
:1022CC00FC00FC00FC00FC00FC00FC00FC00FC0022
:1022DC00FC00FC00FC00FC00FC00FC00FC00FC0012
:1022EC00FC00FC00FC00FC00FC00FC00FD00FD0000
:1022FC00FD00FD00FD00FD00FD00FD00FD00FD00EA
:10230C00FD00FD00FD00FD00FD00FD00FD00FD00D9
:10231C00FD00FD00FD00FD00FD00FD00FD00FD00C9
:10232C00FD00FD00FD00FD00FE00FE00FE00FE00B5
:10233C00FE00FE00FE00FE00FE00FE00FE00FE00A1
:10234C00FE00FE00FE00FE00FE00FE00FE00FE0091
:10235C00FE00FE00FE00FE00FE00FE00FE00FE0081
:10236C00FE00FE00FE00FE00FE00FE00FE00FE0071
:10237C00FE00FE00FE00FE00FE00FE00FE00FF0060
:10238C00FF00FF00FF00FF00FF00FF00FF00FF0049
:10239C00FF00FF00FF00FF00FF00FF00FF00FF0039
:1023AC00FF00FF00FF00FF00FF00FF00FF00FF0029
:1023BC00FF00FF00FF00FF00FF00FF00FF00FF0019
:1023CC00FF00FF00FF00FF00FF00FF00FF00FF0009
:1023DC00FF00FF00FF00FF00FF00FF00FF00FF00F9
:1023EC00FF00FF00FF00FF00FF00FF00FF00FF00E9
:1023FC00FF00FF00FF00FF00FF00FF00FF00FF00D9
:10240C00FF00FF00FF00FF00FF00FF00FF00FF00C8
:10241C00FF00FF00FF00FF00FF00FF00FF00FF00B8
:10242C00FF00FF00FF00FF00FF00FF00FF00FF00A8
:10243C00FF00FF00FF00FF00FF00FF00FF00FF0098
:10244C00FF00FF00FF00FF00FF00FF00FF00FF0088
:10245C00FF00FF00FF00FF00FF00FF00FF00FF0078
:10246C00FF00FF00FF00FF00FF00FF00FE00FE006A
:10247C00FE00FE00FE00FE00FE00FE00FE00FE0060
:10248C00FE00FE00FE00FE00FE00FE00FE00FE0050
:10249C00FE00FE00FE00FE00FE00FE00FE00FE0040
:1024AC00FE00FE00FE00FE00FE00FE00FE00FE0030
:1024BC00FE00FE00FE00FE00FE00FE00FE00FE0020
:1024CC00FE00FD00FD00FD00FD00FD00FD00FD0017
:1024DC00FD00FD00FD00FD00FD00FD00FD00FD0008
:1024EC00FD00FD00FD00FD00FD00FD00FD00FD00F8
:1024FC00FD00FD00FD00FD00FD00FD00FD00FC00E9
:10250C00FC00FC00FC00FC00FC00FC00FC00FC00DF
:10251C00FC00FC00FC00FC00FC00FC00FC00FC00CF
:10252C00FC00FC00FC00FC00FC00FC00FC00FB00C0
:10253C00FB00FB00FB00FB00FB00FB00FB00FB00B7
:10254C00FB00FB00FB00FB00FB00FB00FB00FB00A7
:10255C00FB00FB00FB00FB00FB00FA00FA00FA009A
:10256C00FA00FA00FA00FA00FA00FA00FA00FA008F
:10257C00FA00FA00FA00FA00FA00FA00FA00FA007F
:10258C00F900F900F900F900F900F900F900F90077
:10259C00F900F900F900F900F900F900F900F90067
:1025AC00F900F800F800F800F800F800F800F8005E
:1025BC00F800F800F800F800F800F800F800F8004F
:1025CC00F800F700F700F700F700F700F700F70046
:1025DC00F700F700F700F700F700F700F700F70037
:1025EC00F600F600F600F600F600F600F600F6002F
:1025FC00F600F600F600F600F600F600F500F50021
:10260C00F500F500F500F500F500F500F500F50016
:10261C00F500F500F500F500F400F400F400F4000A
:10262C00F400F400F400F400F400F400F400F400FE
:10263C00F400F300F300F300F300F300F300F300F5
:10264C00F300F300F300F300F300F200F200F200E9
:10265C00F200F200F200F200F200F200F200F200DE
:10266C00F200F100F100F100F100F100F100F100D5
:10267C00F100F100F100F100F000F000F000F000CA
:10268C00F000F000F000F000F000F000F000F000BE
:10269C00EF00EF00EF00EF00EF00EF00EF00EF00B6
:1026AC00EF00EF00EE00EE00EE00EE00EE00EE00AC
:1026BC00EE00EE00EE00EE00EE00ED00ED00ED00A1
:1026CC00ED00ED00ED00ED00ED00ED00ED00EC0097
:1026DC00EC00EC00EC00EC00EC00EC00EC00EC008E
:1026EC00EC00EB00EB00EB00EB00EB00EB00EB0085
:1026FC00EB00EB00EB00EA00EA00EA00EA00EA007B
:10270C00EA00EA00EA00EA00E900E900E900E90071
:10271C00E900E900E900E900E900E900E800E80067
:10272C00E800E800E800E800E800E800E800E7005E
:10273C00E700E700E700E700E700E700E700E70055
:10274C00E600E600E600E600E600E600E600E6004D
:10275C00E600E500E500E500E500E500E500E50044
:10276C00E500E400E400E400E400E400E400E4003C
:10277C00E400E400E300E300E300E300E300E30033
:10278C00E300E300E200E200E200E200E200E2002B
:10279C00E200E200E100E100E100E100E100E10023
:1027AC00E100E100E100E000E000E000E000E0001A
:1027BC00E000E000E000DF00DF00DF00DF00DF0012
:1027CC00DF00DF00DF00DE00DE00DE00DE00DE000A
:1027DC00DE00DE00DD00DD00DD00DD00DD00DD0003
:1027EC00DD00DD00DC00DC00DC00DC00DC00DC00FB
:1027FC00DC00DC00DB00DB00DB00DB00DB00DB00F3
:10280C00DB00DA00DA00DA00DA00DA00DA00DA00EB
:10281C00DA00D900D900D900D900D900D900D900E3
:10282C00D800D800D800D800D800D800D800D700DD
:10283C00D700D700D700D700D700D700D700D600D5
:10284C00D600D600D600D600D600D600D500D500CE
:10285C00D500D500D500D500D500D400D400D400C7
:10286C00D400D400D400D400D300D300D300D300C0
:10287C00D300D300D300D200D200D200D200D200B9
:10288C00D200D200D100D100D100D100D100D100B2
:10289C00D000D000D000D000D000D000D000CF00AD
:1028AC00CF00CF00CF00CF00CF00CF00CE00CE00A6
:1028BC00CE00CE00CE00CE00CD00CD00CD00CD00A0
:1028CC00CD00CD00CD00CC00CC00CC00CC00CC0099
:1028DC00CC00CC00CB00CB00CB00CB00CB00CB0092
:1028EC00CA00CA00CA00CA00CA00CA00CA00C9008D
:1028FC00C900C900C900C900C900C800C800C80087
:10290C00C800C800C800C700C700C700C700C70080
:10291C00C700C700C600C600C600C600C600C60079
:10292C00C500C500C500C500C500C500C400C40075
:10293C00C400C400C400C400C300C300C300C3006F
:10294C00C300C300C300C200C200C200C200C20068
:10295C00C200C100C100C100C100C100C100C00063
:10296C00C000C000C000C000C000BF00BF00BF005E
:10297C00BF00BF00BF00BE00BE00BE00BE00BE0058
:10298C00BE00BD00BD00BD00BD00BD00BD00BC0053
:10299C00BC00BC00BC00BC00BC00BB00BB00BB004E
:1029AC00BB00BB00BB00BA00BA00BA00BA00BA0048
:1029BC00BA00B900B900B900B900B900B900B80043
:1029CC00B800B800B800B800B800B700B700B7003E
:1029DC00B700B700B600B600B600B600B600B60039
:1029EC00B500B500B500B500B500B500B400B40035
:1029FC00B400B400B400B400B300B300B300B3002F
:102A0C00B300B200B200B200B200B200B200B1002A
:102A1C00B100B100B100B100B100B000B000B00025
:102A2C00B000B000AF00AF00AF00AF00AF00AF0020
:102A3C00AE00AE00AE00AE00AE00AE00AD00AD001C
:102A4C00AD00AD00AD00AC00AC00AC00AC00AC0017
:102A5C00AC00AB00AB00AB00AB00AB00AB00AA0012
:102A6C00AA00AA00AA00AA00A900A900A900A9000E
:102A7C00A900A900A800A800A800A800A800A70009
:102A8C00A700A700A700A700A700A600A600A60005
:102A9C00A600A600A500A500A500A500A500A50000
:102AAC00A400A400A400A400A400A300A300A300FD
:102ABC00A300A300A300A200A200A200A200A200F7
:102ACC00A100A100A100A100A100A000A000A000F5
:102ADC00A000A000A0009F009F009F009F009F00EF
:102AEC009E009E009E009E009E009E009D009D00EC
:102AFC009D009D009D009C009C009C009C009C00E7
:102B0C009B009B009B009B009B009B009A009A00E3
:102B1C009A009A009A0099009900990099009900DE
:102B2C0099009800980098009800980097009700DA
:102B3C0097009700970096009600960096009600D6
:102B4C0096009500950095009500950094009400D2
:102B5C0094009400940093009300930093009300CE
:102B6C0093009200920092009200920091009100CA
:102B7C0091009100910090009000900090009000C6
:102B8C008F008F008F008F008F008F008E008E00C3
:102B9C008E008E008E008D008D008D008D008D00BE
:102BAC008C008C008C008C008C008B008B008B00BC
:102BBC008B008B008B008A008A008A008A008A00B6
:102BCC0089008900890089008900880088008800B4
:102BDC0088008800880087008700870087008700AE
:102BEC0086008600860086008600850085008500AC
:102BFC0085008500840084008400840084008400A7
:102C0C0083008300830083008300820082008200A3
:102C1C00820082008100810081008100810080009F
:102C2C0080008000800080000A000000110000007D
:042C3C000024F4007C
:0400000508001AC114
:00000001FF
